:102000002FEF12F0FFFF0D60FFFFFFFFFFFFFFFF4D
:10201000FFFFFFFFFFFFFFFF4A80D8CF0BF0E8CFA5
:102020000CF0E0CF0DF0E1CF0EF0E2CF0FF0D9CF02
:1020300010F0DACF11F0F6CF12F0F7CF13F0F8CF9F
:1020400014F0F5CF15F0230EF66E280EF76E000E85
:10205000F86E20EE16F00F0E0900F5CFDEFFE80651
:10206000FBE29EA22CD09E92010E86A6000E0001DD
:10207000791907E0000E86B6010E796F0101396B00
:102080003A6B0101394B3A2B3A5103E14C0E395D61
:1020900003E3919291969194040000017F2B090E25
:1020A0007F6508D07F6B0101474B482B3D4B3E2B92
:1020B000454B462B010E83A0000E8BECA2F0A4AA88
:1020C000B6D101013E5103E1C90E3D5D02E30001BD
:1020D0007A6B01013D6B3E6B00017A5109E1AACF99
:1020E00077F1AA0E0101771901E0A1D1010E33D0D9
:1020F0007A050FE1AACF77F1550E0101771906E1B4
:10210000020E00017A6F686B696B91D100017A6BE6
:102110008ED1020E7A1921E1770E6825D96E010E53
:102120006921DA6EAACFDFFF684B692B695104E1A0
:10213000020E685D01E27BD101013B6B3C6B775184
:102140003B27000E3C233B513C6F3B6B78513B27B8
:10215000000E3C23030E00010ED0030E7A190DE190
:10216000770E6825D96E010E6921DA6EAACFDFFFDE
:10217000684B692B040E7A6F5AD1040E7A1901E06C
:1021800056D1770E6825D96E010E6921DA6EAACF75
:10219000DFFF020E01013B25096E000E3C210A6E95
:1021A00009500001685D0A50695901E23DD17A6B1E
:1021B000770E016E010E026E01013B51020F036E9C
:1021C000F1ECABF0096E770E00016825D96E010EB7
:1021D0006921DA6EDE50091801E026D1FB6BFC6B39
:1021E000C1D07AC100F120D17AC101F11DD17AC1EB
:1021F00002F11AD17AC103F117D17AC104F114D1D5
:102200007AC105F111D17AC106F10ED17AC107F177
:102210000BD17AC108F108D17AC10BF105D17AC18D
:102220000CF102D17AC10DF1FFD07AC10EF1FCD0D0
:102230007AC10FF1F9D07AC110F1F6D07AC111F15B
:10224000F3D07AC112F1F0D07AC113F1EDD07AC196
:1022500014F1EAD07AC115F1E7D07AC116F1E4D0D1
:102260007AC117F1E1D07AC118F1DED07AC119F143
:10227000DBD07AC11CF1D8D07AC109F1D5D07AC1AE
:102280000AF1D2D0E70E016E010E026E7A0E036ED5
:10229000010E046E066A0F0E056ED9ECABF001015B
:1022A000F56B010E0001AA6FBFD04C0E016E020E3D
:1022B000026E7A0E036E010E046E066A130E056E30
:1022C000D9ECABF002015E6BAFD0380E016E020E9E
:1022D000026E7A0E036E010E046E066A130E056E10
:1022E000D9ECABF002014A6B010E0001B56F9CD036
:1022F000100E016E020E026E7A0E036E010E046E57
:10230000066A130E056ED9ECABF00201216B8CD07E
:10231000240E016E020E026E7A0E036E010E046E22
:10232000066A130E056ED9ECABF00201356B7CD05A
:10233000160E016E7A0E026E010E036E38ECABF0D3
:10234000015002100BE10101446B3C0E436F000190
:10235000646B656B666B676B020E02D0010E000149
:10236000B06F62D001017951010A01E13AD7030A45
:1023700001E13AD7010A01E13AD7070A01E13AD768
:10238000010A01E13AD7030A01E13AD7010A01E162
:102390003AD70E0A01E176D7030AAAE0010AB8E0AB
:1023A000050A01E133D71E0A01E136D7010A01E12E
:1023B00036D7030A01E136D7010A01E136D7070A09
:1023C00001E136D7010A01E136D7030A01E136D728
:1023D000010A01E136D70F0A01E136D7010A01E10E
:1023E00036D7030A01E136D7010A01E136D73B0AA5
:1023F00001E15BD7010A01E168D7020A01E109D7CF
:10240000060A01E12DD7030A01E12DD7010A01E1F6
:102410002DD70F0A01E12DD7010A01E12DD7040ABA
:1024200001E12DD7490A84E00001684B692B15C0F2
:10243000F5FF14C0F8FF13C0F7FF12C0F6FF11C07C
:10244000DAFF10C0D9FF0FC0E2FF0EC0E1FF0DC0E0
:10245000E0FF0CC0E8FF0BC0D8FF4A9010002FEF40
:102460009AF00000000000000000000000000000E2
:10247000000000000000000000000000000000005C
:10248000000000000000000000000000000000004C
:10249000000000000000000000000000000000003C
:1024A000000000000000000000000000000000002C
:1024B000000000000000000000000000000000001C
:1024C00000000000000000A54D1C1B5D4378535127
:1024D0004C175B0C5DF72A3562640A975F9001D553
:1024E0000368FF0000000000000000000000000082
:1024F00000000000000000000000000000000000DC
:1025000000000000000000000000000000000000CB
:1025100000000000000000000000000000000000BB
:1025200000000000000000000000000000000000AB
:10253000000000000000000000000000000000009B
:10254000000000000000000000000000000000008B
:10255000000000000000000000000000000000007B
:10256000000000000000000000000000000000006B
:10257000000000000000000000000000000000005B
:10258000000000000000000000000000000000004B
:10259000000000000000000000000000000000003B
:1025A000000000000000000000000000000000002B
:1025B000000000000000000000000000000000001B
:1025C000000000000000000000000000000000000B
:1025D00000000000000000000000000000000000FB
:1025E00000000000000000000000000000000000EB
:1025F00000000000000000000000000000000000DB
:1026000000000000000000000000000000000000CA
:1026100000000000000000000000000000000000BA
:1026200000000000000000000000000000000000AA
:10263000000000000000000000000000000000009A
:10264000000000000000000000000000000000008A
:10265000000000000000000000000000000000007A
:10266000000000000000000000000000000000006A
:102670000000000000000000000000000102030450
:1026800005060708090A0B0C0D0E0F101112131482
:1026900015161718191A1B1C1D1E1F202122232472
:1026A00025262728292A2B2C2D2E2F303132333462
:1026B00035363738393A3B3C3D3E3F404142434452
:1026C00045464748494A4B4C4E50525456585A5C1E
:1026D0005E6062646566676C717475767778797A26
:1026E0007B7C7F18191A1B1C1D1E1F2021222324EE
:1026F00025262728292A2B2C2D2E2F303132333412
:1027000035363738393A3B3C3D3E3F404142434401
:1027100045464748494A4B4C4D4E4F5051525354F1
:1027200055565758595A5B5C5D5E5F6061626364E1
:10273000656566666767686869696A6A6B6B6C6C11
:102740006D6D6E6E6F6F707071727373737474747D
:1027500074747575757575767778797A7B7C7D7EFE
:102760007E7E7F000102030405060708090A0B0CA0
:102770000D0E0F101112131415161718191A1B1C11
:102780001D1E1F202122232425262728292A2B2C01
:102790002D2E2F303132333435363738393A3B3CF1
:1027A0003D3E3F404142434445464748494A4B4CE1
:1027B0004D4E4F505152535455565758595A5B5CD1
:1027C0005D5E5F606162636466686A6C6E7072749D
:1027D00076787A7C7E80828C96A0AAB4BEC8D2DC41
:1027E000E6F0FA0000000000000000000000000019
:1027F00000000000000000000000000000000000D9
:1028000000000000000000000000000000000000C8
:10281000000000008DCA77008DCA7700000000001C
:102820000000006336633063343534383300000011
:10283000000000030201000F0F0F0F0F0F0F0F0F0B
:102840000F0F0F0D0B0907050E0E0E0C0A080604DC
:102850000E0E0E726573657400E77777777777BF32
:10286000FFFFFB9777BFFFFFFFB8788BFFFFFFFFEE
:10287000FFFFFFFFFFFFFFFFFFFFFFFFFFE7877780
:10288000777778CFFFFE9777877BFFFFF9777777AA
:102890009FFFFFFFFFFFFFFFFFFFFFFFFFFFFFFFA8
:1028A000FFFFFFFFFFFB79FFFFF978BFFEABFFFFE4
:1028B000A78CFFC87AFFFFFFFFFFFFFFFFFFFFFFAF
:1028C000FFFFFFFFFFFFFFFFFFF87EFFFFA78DFF6A
:1028D000FFFFFFFF87CFFFFC77FFFFFFFFFFFFFF3B
:1028E000FFFFFFFFFFFFFFFFFFFFFFFFFFA7AFFFA0
:1028F000FE77BFFFFFFFFFFF77EFFFFF77EFFFFFE1
:10290000FFFFFFFFFFFFFFFFFFFFFFFFFFFFFFFFD7
:10291000FE77EFFFFB88FFFFFFFFFFFF87BFFFFC96
:1029200078FFFFFFFFFFFFFFFFFFFFFFFFFFFFFF3E
:10293000FFFFFFFFFA7AFFFFF97AFFFFFFFFFFFFBC
:10294000B78BFFC87BFFFFFFFFFFFFFFFFFFFFFF0E
:10295000FFFFFFFFFFFFFFFFE87EFFFFF87BEA7747
:102960007AEFFFFFFA777787AFFFFFFFFFFFFFFFE9
:10297000FFFFFFFFFFFFFFFFFFFFFFFFA7AFFFFF0F
:10298000F77B8777878DFFFFFC978779CFFFFFFF66
:10299000FFFFFFFFFFFFFFFFFFFFFFFFFFFFFFFF47
:1029A00087CFFFFFE7789DFFC878FFFFB78CFFC98F
:1029B0008BFFFFFFFFFFFFFFFFFFFFFFFFFFFFFF9B
:1029C000FFFFFFFB89FFFFFFE788FFFFFC87CFFDCD
:1029D00088EFFFFF88CFFFFFEEFFFFFFFFFFFFFF46
:1029E000FFFFFFFFFFFFFFF97BFFFFFFF77BFFFF0D
:1029F000FF87BFF97AFFFFFFB79FFFFFEEFFFFFFE3
:102A0000FFFFFFFFFFFFFFFFFFFFFFD87FFFFFFF7D
:102A1000F87BFFFFFF97BFF87BFFFFFFB77FFFFF4C
:102A2000EEFEEFFFFFFFFFFFFFFFFFFFFFFFFFA730
:102A30009FFFFFFFF97AFFFFFF87BFF97AFFFFFFD4
:102A4000B78FFFFFEEEEFFFFFFFFFFFFFFFFFFFF70
:102A5000FFFFFF97BFFFFFFFFB78EFFFFC77EFFA69
:102A600078FFFFFF879FFFFFEEEFFFFFFFFFFFFFF6
:102A7000FFFFFFFFFFFFFF77DFFFFFFFFF978CFFE9
:102A8000B77AFFFE779CFFC987CFFFFFEEEEFFFF0F
:102A9000FFFFFFFFFFFFFFFFFFFFFC78FFFFFFFFD0
:102AA000FFE87777779FFFFFC77778777BFFFFFF98
:102AB000EEEEFFFFFFFFFFFFFFFFFFFFFFFFFA79D3
:102AC000FFFFFFFFFFFFB7779BFFFFFFFEB8877B8E
:102AD000DFFFFFFFEEFEEEFFFFFFFFFFFFFFFFFF49
:102AE000FFE77878777777BFFFFFB8779CFFFFFF26
:102AF000A77878777FFFFFFFFFFFFFFB9878BFFF86
:102B0000FFFFFFFFFFE77787777777CFFFD87777EC
:102B100077BFFFFF977777787FFFFFFFFFFFFE9775
:102B200077777BFFFFFFFFFFFFFFFFFFFFFB79FFD3
:102B3000FF879DFF977CFFFF97BFFFFFFFFFFFFF12
:102B4000FFFFF987BFFEABFFFFFFFFFFFFFFFFFFA8
:102B5000FFF87EFFFB78FFFFF879FFFF97BFFFFFCD
:102B6000FFFFFFFFFFFFA78DFFFFFFFFFFFFFFFF3F
:102B7000FFFFFFFFFFA8AFFFF97BFFFFFB77FFFF22
:102B800087CFFFFFFFFFFFFFFFFE77BFFFFFFFFFC6
:102B9000FFFFFFFFFFFFFFFFFE77EFFFF77DFFFF68
:102BA000FF77CFFF77DFFFFFFFFFFFFFFFFB88FF10
:102BB000FFFFFFFFFFFFFFFFFFFFFFFFFA7AFFFFAF
:102BC000C77FFFFFFF88BFFF77EFFFFFFFFFFFFF1C
:102BD000FFF98AFFFFFFFFFFFFFFFFFFFFFFFFFF80
:102BE000E77EFFFFB78FFFFFFF87BFFE877788BEB7
:102BF000FFFFFFFFFFF87BEA777AEFFFFFFFFFFFA2
:102C0000FFFFFFFFA8AFFFFFB78FFFFFFF97BFFDDD
:102C100078777877CFFFFFFFFFF77B8777778DFF98
:102C2000FFFFFFFFFFFFFFFF87CFFFFFB78FFFFF14
:102C3000FF98BFFFFFFFFB887EFFFFFFFFE7889D38
:102C4000FFC878FFFFFFFFFFFFFFFFFB79FFFFFFDC
:102C5000B78FFFFFFF97BFFFFFFFFFE87AFFFFFF80
:102C6000FFE788FFFFFC77CFFFFFEEFFFFFFFFF9D5
:102C70007BFFFFFFC77FFFFFFF87BFFFFFFFFFFA5D
:102C800079FFFFFFFFF87BFFFFFF87BFFFFFEEFF2E
:102C9000FFFFFFD77FFFFFFFD77DFFFFFF77DFFF3E
:102CA000FFFFFFFB78FFFFFFFFF87BFFFFFF98BFF1
:102CB000FFFFEEFEEFFFFFA79FFFFFFFF87BFFFF89
:102CC000FB78FFFFFFFFFFF979FFFFFFFFF97AFFB6
:102CD000FFFF87BFFFFFEEEEFFFFFF97BFFFFFFF86
:102CE000FA78FFFFF97BFFFFFFFFFFD77BFFFFFFB6
:102CF000FFFB78EFFFFC78EFFFFFEEEFFFFFFF77C2
:102D0000DFFFFFFFFE889EFF978FFFFB9CFFFB7797
:102D10008FFFFD78EFFF978CFFB78AFFFFFFEEEE86
:102D2000FFFFFC78FFFFFFFFFFC7787778DFFFFB2F
:102D300077777779EFFFFA77BFFFE88787779FFF8D
:102D4000FFFFEEEEFFFFFA79FFFFFFFFFFFD977732
:102D5000AEFFFFFC977779BFFFFFFD78EFFFFFB76E
:102D6000779BFFFFFFFFEEFEEEFDB7787BFFFFFFD7
:102D7000FFDA777ACFFFFFFFFFFFC77BFFFFFFFF81
:102D8000FFFFFFFFFFFFFFFFFFFFFFFFFFE777777B
:102D9000788EFFFFFB7777778BFFFFFFFFFF978B27
:102DA000FFFFFFFFFFFFFFFFFFFFFFFFFFFFFFFF33
:102DB000FFE9BFFFB779FFFFE879FFFA77EFFFFF81
:102DC000FFFB877BFFFFFFFFFFFFFFFFFFFFFFFF13
:102DD000FFFFFFFFFFFFFFFFFB87FFFFB79FFFFF27
:102DE00097BFFFFFFFF8887BFFFFFFFFFFFFFFFF9D
:102DF000FFFFFFFFFFFFFFFFFFFFFFFFFD77EFFF7D
:102E0000B7AFFFFFB8AFFFFFFFA7B87BFFFFFFFF24
:102E1000FFFFFFFFFFFFFFFFFFFFFFFFFFFFFFFFC2
:102E2000FC77FFFFB78FFFFF97BFFFFFFC78F88BA2
:102E3000FFFFFFFFFFFFFFFFFFFFFFFFFFFFFFFFA2
:102E4000FFFFFFFFFA7AFFFFF879EFF988FFFFFF36
:102E5000F87CF87BFFFFFFFFFFFFFFFFFFFFFFFF97
:102E6000FFFFFFFFFFFFFFFDA88EFFFFFD887777C5
:102E70008DFFFFFF97AFF87BFFFFFFFFFFFFFFFF17
:102E8000FFFFFFFFFFFFFFFFFFFF87778BFFFFFFC6
:102E9000FFB78777AFFFFFFB78FFF87BFFFFFFFFF0
:102EA000FFFFFFFFFFFFFFFFFFFFFFFFFFFF778732
:102EB00077AFFFFFF97AFFFA78EFFFD77DFFF87B56
:102EC000FFFFFFFFFFFFFFFFFFFFFFFFFFFFFFFF12
:102ED000FFFFFFFFB888FFFF97AFFFFFB79FFF8798
:102EE000BFFFF87BFFFFFFFFEEFFFFFFFFFFFFFFCE
:102EF000FFFFFFFFFFFFFFFFFF88BFFD77FFFFFF23
:102F0000F87CF979FFFFF87BFFFFFFFFEEFFFFFF83
:102F1000FFFFFFFFFFFFFFFFFFFFFFFFFFA79FFB7D
:102F200077FFFFFFF87BC7777778778777EFFFFF2B
:102F3000EEFEEFFFFFFFFFFFFFFFFFFFFFFFFFFFC3
:102F4000FFA79FFC87FFFFFFF87BC878777787771D
:102F500077EFFFFFEEEEFFFFFFFFFFFFFFFFFFFF3B
:102F6000FFFFFFFFFF87BFFF77BFFFFFB87DFFFFBA
:102F7000FFFFF88BFFFFFFFFEEEFFFFFFFFFFFFFFD
:102F8000FFFFFFFFFF8BDFFFB878EFFFA78AFFFA95
:102F9000879FFFFFFFFFF87BFFFFFFFFEEEEFFFFC6
:102FA000FFFFFFFFFFFFFFFFFF878777778DFFFFA3
:102FB000F977777779FFFFFFFFFFF87BFFFFFFFFD0
:102FC000EEEEFFFFFFFFFFFFFFFFFFFFFFFB887736
:102FD0009BFFFFFFFFB98779BFFFFFFFFFFFF87B74
:102FE000FFFFFFFFEEFEEEFFFFFFFFFFFFFFFFFF14
:102FF000FFFB97879CFFFFFFE77878877BFFFFFE4B
:10300000A7778BFFFFFFFFFFFFFFB8778BFFFFFF67
:10301000FFFFFFFFFFA7777777BFFFFFD7778777A0
:103020007BFFFFC78777778EFFFFFFFFFFF977777B
:10303000779FFFFFFFFFFFFFFFAAEFFD977CFFFFDA
:10304000C78FFFFFFFFFFF88BFFFB779FFFFFFFFBD
:10305000FFA78CFFC87AFFFFFFFFFFFFFFFFFFFF07
:10306000F87AFFFFC78FFFFFFFFFFF9FFFFFFB8780
:10307000FFFFFFFFFF87CFFFFC77FFFFFFFFFFFF93
:10308000FFFFFFFFF97AFFFFB79FFFFFFFFFFFFF83
:10309000FFFFFF77CFFFFFFFFF77EFFFFF78EFFF27
:1030A000FFFFFFFFFFFFFFFFF98AFFFFB79FFFFF53
:1030B000FFFFFFFFFFFFFF77CFFFFFFFFF87BFFF90
:1030C000FC78FFFFFFFFFFFFFFFFFFFFE77EFFFF33
:1030D000B7AFFFFFFFFFFFFFFFFFFC77FFFFFFFF23
:1030E000FFB88BFFC87BFFFFFFFFFFFFFFFFFFFB6A
:1030F00087BFFFFFA777779BFFFFFFFFFFFFF979F0
:10310000FFFFFFFFFFFA777777AFFFFFFFFFFFFFBC
:10311000FFFB78779CFFFFFF977778779FFFFFFF94
:10312000FFFF988EFFFFFFFFFFFC978779CFFFFF20
:10313000FFFFFFFFFFFB777879CFFFFFFFFFFC97D3
:103140008AFFFFFFFFD978CFFFFFFFFFFFB78CFF9C
:10315000C97BFFFFFFFFFFFFFFFFFFFCA77BFFFF18
:10316000FFFFFFFA77FFFFFFFB779DFFFFFFFFFFEA
:10317000FD78EFFFFF87CFFFFFEEFFFFFFFFFFFFB1
:10318000FB78FFFFFFFFFFFF77CFFFFF977BFFFF7E
:10319000FFFFFFFFF97AFFFFFFB79FFFFFEEFFFF83
:1031A000FFFFFFFFFF77CFFFFFFFFFFF77BFFFF9B5
:1031B00078CFFFFFFFFFFFFFF87BFFFFFFB77FFF29
:1031C000FFEEFEEFFFFFFFFFFF78CFFFFFFFFFFDEA
:1031D00077DFFFA79FFFFFFFFFFFFFFFF97AFFFFEA
:1031E000FFB88FFFFFEEEEFFFFFFFFFFFB78FFFF53
:1031F000FFFFFFF988FFFE77EFFFFFFFFFFFFFFFF5
:10320000FA78FFFFFF879FFFFFEEEFFFFF9BFFFEB8
:10321000A77AFFFF8BFFFC977BFFFB79FFFFFFFF88
:10322000FFFD78EFFE779CFFC977CFFFFFEEEEFF43
:10323000FF77787777AFFFFF87777777BFFFFA78E9
:10324000777777778FFA78BFFFC77777777BFFFF3E
:10325000FFEEEEFFFFCA8787ACFFFFFFB87777BDB1
:10326000FFFFFA87787777778FFD78EFFFFEB878E2
:103270007BDFFFFFFFEEFEEEFFFFFFFA7FFFFFFFAA
:10328000FFB8778BFFFFFFFEA7778BFFFFFFFFFFE6
:10329000FFFFFFFFFFFFFFFFFFFFFFFFFFFFFC98A8
:1032A0007FFFFFFFD87777779FFFFFC77778778E0D
:1032B000FFFFFFFFFFFFFFFFFFFFFFFFFFFFFFFF1E
:1032C000FFFB97778FFFFFFF878CFFB77AFFFF88A1
:1032D000BFFFB779FFFFFFFFFFFFFFFFFFFFFFFF0C
:1032E000FFFFFFFFFFB779B77FFFFFFB78EFFFFC22
:1032F00077EFFF9FFFFFFB77FFFFFFFFFFFFFFFF62
:10330000FFFFFFFFFFFFFFFFFFBACFB78FFFFFF900
:103310007AFFFFFF97BFFFFFFFFFFF77CFFFFFFFA2
:10332000FFFFFFFFFFFFFFFFFFFFFFFFFFFFFFB7F5
:103330007FFFFFF88BFFFFFFA7AFFFFFFFFFFF78C7
:10334000CFFFFFFFFFFFFFFFFFFFFFFFFFFFFFFFBD
:10335000FFFFFFB77FFFFFF97AFFFFFF979FFFFF98
:10336000FFFFFC87FFFFFFFFFFFFFFFFFFFFFFFFE8
:10337000FFFFFFFFFFFFFFB77FFFFFFA78FFFFFEB2
:10338000879FFFFFFFFFF979FFFFFFFFFFFFFFFFB1
:10339000FFFFFFFFFFFFFFFFFFFFFFB77FFFFFFE06
:1033A000779CFFC8779FFFFFFFFF978EFFFFFFFF10
:1033B000FFFFFFFFFFFFFFFFFFFFFFFFFFFFFFB765
:1033C0007FFFFFFFB8787778A79FFFFFFFD978CFFF
:1033D000FFFFFFFFFFFFFFFFFFFFFFFFFFFFFFFFFD
:1033E000FFFFFFB77FFFFFFFFDA777AFA79FFFFF9F
:1033F000FB779DFFFFFFFFEEFFFFFFFFFFFFFFFFDC
:10340000FFFFFFFFFFFFFFB77FFFFFFFFFFFFFFF94
:1034100097BFFFFF977BFFFFFFFFFFEEFFFFFFFF61
:10342000FFFFFFFFFFFFFFFFFFFFFFB77FFFFFFF74
:10343000FFFFFFFF87CFFFF978CFFFFFFFFFFFEE12
:10344000FEEFFFFFFFFFFFFFFFFFFFFFFFFFFFB7E5
:103450007FFFFFFFFFFFFFFB78FFFFA79FFFFFFF3F
:10346000FFFFFFEEEEFFFFFFFFFFFFFFFFFFFFFF8E
:10347000FFFFFFB77FFFFFFFFFFFFFD87BFFFE7857
:10348000EFFFFFFFFFFFFFEEEFFFFFFFFFFFFFFF7D
:10349000FFFFFFFFFFFFFFB77FFFFFFF9BFFFB77F4
:1034A0009FFFFB79FFFFFFFFFFFFFFEEEEFFFFFF38
:1034B000FFFFFFFFFFFFFFFFFFFFFFB77FFFFFFFE4
:1034C00087777779FFFFFA77777777778FFFFFEE48
:1034D000EEFFFFFFFFFFFFFFFFFFFFFFFFFFFFB755
:1034E0008FFFFFFFEA7879BFFFFFFA77777877776A
:1034F0008FFFFFEEFEEEFFFFFFFFFFFFFFFFFFFF6F
:10350000FFFFFFD8BFFFFFE77777878777BFFFFF12
:10351000FB9777BFFFFFFFFFFFFFFFFC77BFFFFFBA
:10352000FFFFFFFFFFFFFA77BFFFFFE777778777A0
:1035300077CFFFFE9777777BFFFFFFFFFFFFFFF956
:1035400087BFFFFFFFFFFFFFFFEB7777BFFFFFFFA7
:10355000FFFFFFFB79FFFFF977BFFEABFFFFFFFF28
:10356000FFFFFFB777BFFFFFFFFFFFFFFF778B87EF
:10357000BFFFFFFFFFFFFFF87EFFFFA78DFFFFFFED
:10358000FFFFFFFFFFFFFF8887BFFFFFFFFFFFFF7A
:10359000FF8BFF87BFFFFFFFFFFFFFA7AFFFFE7897
:1035A000BFFFFFFFFFFFFFFFFFFFFA8B87BFFFFF9C
:1035B000FFFFFFFFFFFFFF88BFFFFFFFFFFFFE775B
:1035C000EFFFFB88FFFFFFFFFFFFFFFFFFFFC78F3E
:1035D00087BFFFFFFFFFFFFFFFFFFF87BFFFFFFF6B
:1035E000FFFFFA7AFFFFF97AFFFFFFFFFFFFFFFF00
:1035F000FFFF87CF87BFFFFFFFFFFFFFFFFFFF87B3
:10360000BFFFFFFFFFFFE77EFFFFF87BEA787AEF5F
:10361000FFFFFFFFFFF97AFF87BFFFFFFFFFFFFFFD
:10362000FFFFFF87BFFFFFFFFFFFA7AFFFFFF77B96
:103630008777878DFFFFFFFFFFB78FFF87BFFFFFF4
:10364000FFFFFFFFFFFFFF87BFFFFFFFFFFF87CFEA
:10365000FFFFE7789DFFC888FFFFFFFFFD77DFFFD3
:1036600088BFFFFFFFFFFFFFFFFFFF87BFFFFFFFD9
:10367000FFFB79FFFFFFE778FFFFFC77CFFFFFFF3E
:10368000F87BFFFF87BFFFFFFFFEEFFFFFFFFF8716
:10369000BFFFFFFFFFF98BFFFFFFF77BFFFFFF87F8
:1036A000BFFFFFFF979FFFFF88BFFFFFFFFEEFFFFA
:1036B000FFFFFF87BFFFFFFFFFD87FFFFFFFF87B04
:1036C000FFFFFF97BFFFFFFC7777877877777EFF55
:1036D000FFFEEFEEFFFFFF87BFFFFFFFFFA79FFF8C
:1036E000FFFFF97AFFFFFF87BFFFFFFC777877774F
:1036F00077777EFFFFFEEEEFFFFFFF87BFFFFFFF45
:10370000FF97BFFFFFFFFB78EFFFFC77EFFFFFFFA7
:10371000FFFFFFFF87BFFFFFFFFEEEFFFFFFFF87FB
:10372000BFFFFFFFFF78DFFFFFFFFF978CFFB77A38
:10373000FFF97BFFFFFFFFFF87BFFFFFFFFEEEEFFD
:10374000FFFFFF88BFFFFFFFFC78FFFFFFFFFFE8E1
:103750007778779FFFE878FFFFFFFFFF87BFFFFFC6
:10376000FFFEEEEFFFFFFF88BFFFFFFFFA79FFFFCD
:10377000FFFFFFFFB7779BFFFFF98BFFFFFFFFFF07
:1037800087BFFFFFFFFEEFEEEFFFFC9787ADFFFF68
:10379000FFFFFB9777BFFFFFFFFFFFFFFFFFFFFF6D
:1037A000FFFFFFFFFFFFFFFFFFFFFFFFFFFFA787F9
:1037B0007777CFFFFFFE9777777BFFFFFFFFFFFF56
:1037C000FFFFFFFFFFFFFFFFFFFFFFFFFFFFFFFF09
:1037D000FFFB77AFFE987EFFFFF978BFFEABFFFFE0
:1037E000FFFFFFFFFFFFFFFFFFFFFFFFFFFFFFFFE9
:1037F000FFFFFFFFFFF87AFFFFF97AFFFFA78DFFBA
:10380000FFFFFFFFFFFFFFFFFFFFFFFFFFFFFFFFC8
:10381000FFFFFFFFFFFFFFFFFFD77FFFFFFC78FFEA
:10382000FE77BFFFFFFFFFFFFFFFFFFFFFFFFFFF71
:10383000FFFFFFFFFFFFFFFFFFFFFFFFFFB77FFF60
:10384000FFFE77EFFB78FFFFFFFFFFFFFFFFFFFFAC
:10385000FFFFFFFFFFFFFFFFFFFFFFFFFFFFFFFF78
:10386000FFC77FFFFFFD77CFF97AFFFFFFFFFFFF65
:10387000FFFFFFFFFFFFFFFFFFFFFFFFFFFFFFFF58
:10388000FFFFFFFFFFF77BFFFFFA87CFF87BEA8799
:103890007AEFFFFFFFFFFFFFFFFFFFFFFFFFFFFFCD
:1038A000FFFFFFFFFFFFFFFFFFFA77AFFFA778CF14
:1038B000F77B8777778DFFFFFFFFFFFFFFFFFFFF9E
:1038C000FFFFFFFFFFFFFFFFFFFFFFFFFFFF9877F7
:1038D000777B77CFE7789DFFC888FFFFFFFFFFFF6B
:1038E000FFFFFFFFFFFFFFFFFFFFFFFFFFFFFFFFE8
:1038F000FFFFFB8879CF87DFE878FFFFFC77CFFFFA
:10390000FFEEFFFFFFFFFFFFFFFFFFFFFFFFFFFFD8
:10391000FFFFFFFFFFFFFFFFFFFD77FFF77BFFFFCD
:10392000FF87BFFFFFEEFFFFFFFFFFFFFFFFFFFF70
:10393000FFFFFFFFFFFFFFFFFFFFFFFFFFFB79FF21
:10394000F87BFFFFFF97BFFFFFEEFEEFFFFFFFFFDC
:10395000FFFFFFFFFFFFFFFFFFFFFFFFFFFFFFFF77
:10396000FFF87BFFF97AFFFFFF87BFFFFFEEEEFF57
:10397000FFFFFFFFFFFFFFFFFFFFFFFFFFFFFFFF57
:10398000FFFFFFFFFFA78FFFFB78EFFFFC77EFFF45
:10399000FFEEEFFFFFFFFFFFFFFFFFFFFFFFFFFF58
:1039A000FFFFFFFFFFFB9DFFC987CFFFFF978CFF46
:1039B000B77AFFFFFFEEEEFFFFFFFFFFFFFFFFFF06
:1039C000FFFFFFFFFFFFFFFFFFFB7777787CFFFF25
:1039D000FFE87777779FFFFFFFEEEEFFFFFFFFFF28
:1039E000FFFFFFFFFFFFFFFFFFFFFFFFFFFFB878B5
:1039F0008BEFFFFFFFFFB7779BFFFFFFFFEEFEEEB2
:103A0000FFFFFFFFFFFFFFFFFFFFFFFFFFFFFFFFC6
:103A1000FFFFFB8778BFFFFFFFFDA778ACFFFFFF2D
:103A2000FFFFFFEA8778BFFFFFFFFFFFFFFFFFFFFA
:103A3000FFFFFFFFFFFF97787779FFFFFFB77787DB
:103A400087BFFFFFFFFFFC77778778EFFFFFFFFF60
:103A5000FFFFFFFFFFFFFFFFFFFA78CFFC88AFFFFC
:103A6000FE879FFFA77EFFFFFFFFF88BFFFB779F7F
:103A7000FFFFFFFFFFFFFFFFFFFFFFFFFFF87CFFE0
:103A8000FFC77FFFFB79FFFFF97BFFFFFFFFF9FF18
:103A9000FFFFB87FFFFFFFFFFFFFFFFFFFFFFFFFFD
:103AA000FFF87EFFFFF78EFFFB7AFFFFFB8AFFFF29
:103AB000FFFFFFFFFFFFF77CFFFFFFFFFFFFFFFFA1
:103AC000FFFFFFFFFFF88BFFFFC78FFFFB78FFFFB4
:103AD000F97BFFFFFFFFFFFFFFFFF77CFFFFFFFF0B
:103AE000FFFFFFFFFFFFFFFFFFFB78BFFC87BFFF6C
:103AF000FF879EFF978FFFFFFFFFFFFFFFFFC87F3E
:103B0000FFFFFFFFFFFFFFFFFFFFFFFFFFFFA777A5
:103B1000777AFFFFFFD8777778DFFFFFFFFFFFFFA0
:103B2000FFFF979FFFFFFFFFFFFFFFFFFFFFFFFF6D
:103B3000FFFFC978779CFFFFFFFB77878AFFFFFFB6
:103B4000FFFFFFFFFFF978EFFFFFFFFFFFFFFFFF22
:103B5000FFFFFFFFFFFB88CFFC97BFFFFF97AFFF83
:103B6000A78EFFFFFFFFFFFFFD978CFFFFFFFFFF0B
:103B7000FFFFFFFFFFFFFFFFFFD78EFFFFF87CFF78
:103B8000F97AFFFFFB79FFFFFFFFFFFFB779DFFF48
:103B9000FFFFFEEFFFFFFFFFFFFFFFFFFF97AFFFFE
:103BA000FFFB79FFD77FFFFFFF87CFFFFFFFFFF905
:103BB00077BFFFFFFFFFFEEFFFFFFFFFFFFFFFFFEE
:103BC000FF87BFFFFFFB87FFB77FFFFFFF87BFFFB9
:103BD000FFFFFF988CFFFFFFFFFFFEEFEEFFFFFFF1
:103BE000FFFFFFFFFF98AFFFFFFB88FFC77FFFFFCF
:103BF000FF87BFFFFFFFFA79FFFFFFFFFFFFFEEE2A
:103C0000EFFFFFFFFFFFFFFFFFA88FFFFFF879FF28
:103C1000F77BFFFFFB77DFFFFFFFE77EFFFFFFFF85
:103C2000FFFFFEEEFFFFFFFFFFFFFFFFFFE779CF84
:103C3000FC977CFFFA87AFFFA779FFF97BFFB79F5F
:103C4000FFFFFFFFFFFFFEEEEFFFFFFFFFFFFFFFA6
:103C5000FFFC77777777BFFFFF977777779FFFE74F
:103C600078FFA77777778778FFFFFEEEEFFFFFFFFC
:103C7000FFFFFFFFFFFFEB8777BDFFFFFFFB97779E
:103C80009BFFFFF97BFFA77777777778FFFFFEEF42
:103C9000EEEFFFFFFFFFFFFFFFFFFFFFFF978FFF2D
:103CA000FFFFB8778BFFFFFFFFFFFFFFFFFFFFFF67
:103CB000FFFFFFFFFFFFFFFFFFFFFFFFFFFFFFFF14
:103CC000FC778FFFFFF97777779FFFFFFFFFFFFFFD
:103CD000FFFFFFFFFFFFFFFFFFFFFFFFFFFFFFFFF4
:103CE000FFFFFFFFF8778FFFFFA88CFFC87AFFFF69
:103CF000FFFFFFFFFFFFFFFFFFFFFFFFFFFFFFFFD4
:103D0000FFFFFFFFFFFFFFFFB7878FFFFF87CFFF9B
:103D1000FC78FFFFFFFFFFFFFFFFFFFFFFFFFFFF3D
:103D2000FFFFFFFFFFFFFFFFFFFFFFFE78B78FFFE3
:103D3000FF77EFFFFF77EFFFFFFFFFFFFFFFFFFFC3
:103D4000FFFFFFFFFFFFFFFFFFFFFFFFFFFFFFF989
:103D50007BB78FFFFF87BFFFFC78FFFFFFFFFFFFF1
:103D6000FFFFFFFFFFFFFFFFFFFFFFFFFFFFFFFF63
:103D7000FFFFFFB79FB78FFFFFB78BFFC88BFFFF1A
:103D8000FFFFFFFFFFFFFFFFFFFFFFFFFFFFFFFF43
:103D9000FFFFFFFFFFFFFD78EFB88FFFFFFA777798
:103DA00077AFFFFFFFFFFFFFFFFFFFFFFFFFFFFFFB
:103DB000FFFFFFFFFFFFFFFFFFFFF87BFFB78FFF56
:103DC000FFFC977779CFFFFFFFFFFFFFFFFFFFFFAC
:103DD000FFFFFFFFFFFFFFFFFFFFFFFFFFFF979FBB
:103DE000FFB78FFFFFB88CFFC97BFFFFFFFFFFFF0F
:103DF000FFFFFFFFFFFFFFFFFFFFFFFFFFFFFFFFD3
:103E0000FFFB78FFFFB78FFFFD78EFFFFF88CFFF45
:103E1000FFEEFFFFFFFFFFFFFFFFFFFFFFFFFFFFC3
:103E2000FFFFFFFFFFC77DFFFFB88FFFF97AFFFF9E
:103E3000FFB79FFFFFEEFFFFFFFFFFFFFFFFFFFF4B
:103E4000FFFFFFFFFFFFFFFFFF9778877777877AF6
:103E5000F87BFFFFFFB87FFFFFEEFEEFFFFFFFFFE6
:103E6000FFFFFFFFFFFFFFFFFFFFFFFFFF977778D9
:103E70007777787AF97AFFFFFFB78FFFFFEEEEFFD3
:103E8000FFFFFFFFFFFFFFFFFFFFFFFFFFFFFFFF42
:103E9000FFFFFFFFFFB78FFFFA78FFFFFF879FFF4E
:103EA000FFEEEFFFFFFFFFFFFFFFFFFFFFFFFFFF43
:103EB000FFFFFFFFFFFFFFFFFFB78FFFFE779CFFB6
:103EC000C977CFFFFFEEEEFFFFFFFFFFFFFFFFFF12
:103ED000FFFFFFFFFFFFFFFFFFFFFFFFFFB78FFFAA
:103EE000FFC77787777BFFFFFFEEEEFFFFFFFFFF48
:103EF000FFFFFFFFFFFFFFFFFFFFFFFFFFFFFFFFD2
:103F0000FFB78FFFFFFEB8787BDFFFFFFFEEFEEE0F
:103F1000FFFFFFFFFFFFFFFFFFFFFFFFFFFFFFFFB1
:103F2000FFFFFFFFFF978FFFFFFFFFFF988FFFFF50
:103F3000FFFFFFFFFFFA7FFFFFFFFFFFFFFFFFFF16
:103F4000FFFFFFFFFFFFFFFFFC878FFFFFFFFFFC6F
:103F5000778FFFFFFFFFFFFFFC977FFFFFFFFFFF54
:103F6000FFFFFFFFFFFFFFFFFFFFFFFFF8778FFF60
:103F7000FFFFFFF8878FFFFFFFFFFFFB97778FFFA4
:103F8000FFFFFFFFFFFFFFFFFFFFFFFFFFFFFFFF41
:103F9000B7878FFFFFFFFFB7888FFFFFFFFFFFB7D8
:103FA00079B77FFFFFFFFFFFFFFFFFFFFFFFFFFF6F
:103FB000FFFFFFFE78B78FFFFFFFFE78B78FFFFF91
:103FC000FFFFFFBACFB87FFFFFFFFFFFFFFFFFFF3D
:103FD000FFFFFFFFFFFFFFF97BB78FFFFFFFF97BBD
:103FE000B78FFFFFFFFFFFFFFFB77FFFFFFFFFFF61
:103FF000FFFFFFFFFFFFFFFFFFFFFFB79FB78FFF31
:10400000FFFFB89FB78FFFFFFFFFFFFFFFB77FFFE7
:10401000FFFFFFFFFFFFFFFFFFFFFFFFFFFFFD7839
:10402000EFB78FFFFFFD78EFB78FFFFFFFFFFFFFB9
:10403000FFB77FFFFFFFFFFFFFFFFFFFFFFFFFFF58
:10404000FFFFF87BFFB78FFFFFF87BFFB78FFFFF06
:10405000FFFFFFFFFFB77FFFFFFFFFFFFFFFFFFF38
:10406000FFFFFFFFFFFF979FFFB78FFFFF979FFFA8
:10407000B78FFFFFFFFFFFFFFFB77FFFFFFFFFFFD0
:10408000FFFFFFFFFFFFFFFFFFFB88FFFFB78FFF73
:10409000FB78FFFFB78FFFFFFFFFFFFFFFB77FFF3B
:1040A000FFEEFFFFFFFFFFFFFFFFFFFFFFC77DFFEB
:1040B000FFB78FFFC77DFFFFB78FFFFFFFFFFFFF3A
:1040C000FFB77FFFFFEEFFFFFFFFFFFFFFFFFFFFD9
:1040D000FF9787777777878A9777777777777AFFEA
:1040E000FFFFFFFFFFB77FFFFFEEFEEFFFFFFFFFCA
:1040F000FFFFFFFFFF9877777787877A9777777744
:1041000087777AFFFFFFFFFFFFB77FFFFFEEEEFF2E
:10411000FFFFFFFFFFFFFFFFFFFFFFFFFFB78FFF67
:10412000FFFFFFFFB78FFFFFFFFFFFFFFFB77FFF1F
:10413000FFEEEFFFFFFFFFFFFFFFFFFFFFFFFFFFB0
:10414000FFB78FFFFFFFFFFFB88FFFFD78EFFFFF87
:10415000FFB77FFFFFEEEEFFFFFFFFFFFFFFFFFF59
:10416000FFFFFFFFFFB78FFFFFFFFFFFB78FFFFAD4
:1041700077BFFFFFFFB77FFFFFEEEEFFFFFFFFFF01
:10418000FFFFFFFFFFFFFFFFFFB78FFFFFFFFFFFF7
:10419000B78FFFFD78EFFFFFFFB78FFFFFEEFEEE5B
:1041A000FFFFFFFFFFFFFFFFFFFFEA8778BFFFFF73
:1041B000FFFFFFFFFB8878BFFFFFFFFFFFFFFFFF51
:1041C000FFFFFFFFFFFFFFFFFFFFFFFFFFFC777712
:1041D0007778EFFFFFFFFFFF98877779FFFFFFFFFB
:1041E000FFFFFFFFFFFFFFFFFFFFFFFFFFFFFFFFDF
:1041F000FFF88BFFFB879FFFFFFFFFFA88CFFC884C
:10420000AFFFFFFFFFFFFFFFFFFFFFFFFFFFFFFF0E
:10421000FFFFFFFFFFF9FFFFFFB87FFFFFFFFFF882
:104220007CFFFFC78FFFFFFFFFFFFFFFFFFFFFFFC9
:10423000FFFFFFFFFFFFFFFFFFFFFFFFFFF77CFF19
:10424000FFFFFFF77EFFFFF77EFFFFFFFFFFFFFF90
:10425000FFFFFFFFFFFFFFFFFFFFFFFFFFFFFFFF6E
:10426000FFF78CFFFFFFFFF87BFFFFC78FFFFFFF0C
:10427000FFFFFFFFFFFFFFFFFFFFFFFFFFFFFFFF4E
:10428000FFFFFFFFFFC77FFFFFFFFFFB88BFFC882B
:10429000BFFFFFFFFFFFFFFFFFFFFFFFFFFFFFFF6E
:1042A000FFFFFFFFFFFFFFFFFF979FFFFFFFFFFFE6
:1042B000A777778AFFFFFFFFFFFFFFFFFFFFFFFFEB
:1042C000FFFFFFFFFFFFFFFFFFFFFFFFF978EFFF9B
:1042D000FFFFFFFFC977879CFFFFFFFFFFFFFFFF87
:1042E000FFFFFFFFFFFFFFFFFFFFFFFFFFFFFFFDE0
:1042F000978CFFFFFFFFFFFB78CFFC97BFFFFFFF0F
:10430000FFFFFFFFFFFFFFFFFFFFFFFFFFFFFFFFBD
:10431000FFFFFFB779DFFFFFFFFFFFD78EFFFFF83B
:104320007CFFFFFEEFFFFEEFFFFFFFFFFFFFFFFF42
:10433000FFFFFFFFFFFFF977BFFFFFFFFFFFFF97C3
:10434000AFFFFFFB79FFFFFEEEFFFEEFFFFFFFFF7A
:10435000FFFFFFFFFFFFFFFFFFFF978CFFFFFFFF48
:10436000FFFFFF87BFFFFFFB77FFFFFEEEFFEEEFD4
:10437000FFFFFFFFFFFFFFFFFFFFFFFFFFFA79FFD8
:10438000FFFFFFFFFFFFFF97AFFFFFFB78FFFFFE81
:10439000EEEFEEEFFFFFFFFFFFFFFFFFFFFFFFFF6F
:1043A000FFE77EFFFFFFFFFFFFFFFFA88FFFFFF884
:1043B00079FFFFFEEFEEEEEFFFFFFFFFFFFFFFFFD6
:1043C000FFFFFFFFFFB79FFFFFFFFFFFF97BFFE747
:1043D00079CFFC987CFFFFFEEFEEFEEFFFFFFFFFC3
:1043E000FFFFFFFFFFFFFFFFFFA77878777778FFDA
:1043F000E778FFFC77787777BFFFFFFEEFEEFEEF01
:10440000FFFFFFFFFFFFFFFFFFFFFFFFFFA7787723
:10441000777788FFF98BFFFFEB8787BDFFFFFFFEF4
:10442000EFEEFEEFFFFFFFFFFFFFFFFFFFFFFFFFCE
:10443000FFE77777777BFFFFFFFFFFFFFEB7779DF3
:10444000FFFFFFFFFFFFFFFFFFFFFFFFFFFFFFFF7C
:10445000FFFFFFFFFFD77777877BFFFFFFFFFFFFA0
:10446000B7787788FFFFFFFFFFFFFFFFFFFFFFFF2A
:10447000FFFFFFFFFFFFFFFFFFC78FFFFFFFFFFFF4
:10448000FFFFFFFB779DFFB9FFFFFFFFFFFFFFFF70
:10449000FFFFFFFFFFFFFFFFFFFFFFFFFFC78FFFD4
:1044A000FFFFFFFFFFFFFFE87AFFFFFFFFFFFFFFB8
:1044B000FFFFFFFFFFFFFFFFFFFFFFFFFFFFFFFF0C
:1044C000FFB79FFFFFFFFFFFFFFFFFA78FFFFFFF6C
:1044D000FFFFFFFFFFFFFFFFFFFFFFFFFFFFFFFFEC
:1044E000FFFFFFFFFFB79FFFFFFFFFFFFFFFFF87FC
:1044F000BFFFFFFFFFFFFFFFFFFFFFFFFFFFFFFF0C
:10450000FFFFFFFFFFFFFFFFFFB7AFFFFFFFFFFF53
:10451000FFFFFC77FFFFFFFFFFFFFFFFFFFFFFFF36
:10452000FFFFFFFFFFFFFFFFFFFFFFFFFFA7787702
:104530009BFFFFFFFFFFFB88FB8779BFFFFFFFFFAC
:10454000FFFFFFFFFFFFFFFFFFFFFFFFFFFFFFFF7B
:10455000FF978777779FFFFFFFFFFA79B777777A23
:10456000FFFFFFFFFFFFFFFFFFFFFFFFFFFFFFFF5B
:10457000FFFFFFFFFFFFFFFC977AFFFFFFFFFA78C7
:104580007BFFF977BFFFFFFFFFFFFFFFFFFFFFFF8D
:10459000FFFFFFFFFFFFFFFFFFFFFFFFFA77FFFFB8
:1045A000FFFFFA77BFFFFF979FFFFFEEFFFFEEFFD2
:1045B000FFFFFFFFFFFFFFFFFFFFFFFFFFFFFFFF0B
:1045C000FF77CFFFFFFFFA78FFFFFFB77FFFFFEE18
:1045D000EFFFEEFFFFFFFFFFFFFFFFFFFFFFFFFF0C
:1045E000FFFFFFFFFF77BFFFFFFFFB78FFFFFFC766
:1045F0007FFFFFEEEFFEEEFFFFFFFFFFFFFFFFFF7E
:10460000FFFFFFFFFFFFFFFFFD87DFFFFFFFFD77DE
:10461000FFFFFFB78FFFFFEEEEFEEEFFFFFFFFFF96
:10462000FFFFFFFFFFFFFFFFFFFFFFFFF978FFFF27
:10463000FFFFFF87AFFFFF97AFFFFFEEFEEEEEFF3E
:10464000FFFFFFFFFFFFFFFFFFFFFFFFFF8BFFFCF1
:10465000987BFFFD78EFFFC87AFFE987EFFFFFEE59
:10466000FEEFEEFFFFFFFFFFFFFFFFFFFFFFFFFF7C
:10467000FF77778777BFFFFA77BFFFFB7777787C85
:10468000FFFFFFEEFEEFEEFFFFFFFFFFFFFFFFFF6D
:10469000FFFFFFFFFFB87777BDFFFFFD78EFFFFF5C
:1046A000C9778AEFFFFFFFEEFEEFEEFFFFFFFFFF90
:1046B000FFFFFFFFFFFFFFFFFFFFFFFA7FFFFFFF8F
:1046C000FFFFFA7FFFFFFFFFFFFFFB9777ACFFFFC6
:1046D000FFFFFFFFFFFFFFFFFFFFFFFFFFFFFC9854
:1046E0007FFFFFFFFFFC977FFFFFFFFFFFFF977834
:1046F0007777BFFFFFFFFFFFFFFFFFFFFFFFFFFF1A
:10470000FFFB97778FFFFFFFFB97777FFFFFFFFF91
:10471000FFFB79CFFD978CFFFFFFFFFFFFFFFFFF40
:10472000FFFFFFFFFFB779B77FFFFFFFB779B77FC5
:10473000FFFFFFFFFFFBBFFFFFF87AFFFFFFFFFF59
:10474000FFFFFFFFFFFFFFFFFFBACFB78FFFFFFFA6
:10475000BACFB77FFFFFFFFFFFFFFFFFFFFA89FF21
:10476000FFFFFFFFFFFFFFFFFFFFFFFFFFFFFFB7A1
:104770007FFFFFFFFFFFB77FFFFFFFFFFFFFFFFF91
:10478000FFFA79FFFFFFFFFFFFFFFFFFFFFFFFFFC4
:10479000FFFFFFB77FFFFFFFFFFFB77FFFFFFFFFB9
:1047A000FFFFFFFFFFF97AFFFFFFFFFFFFFFFFFFA4
:1047B000FFFFFFFFFFFFFFB77FFFFFFFFFFFB78F89
:1047C000FFFFFFFFFFFFFFFFFFC77DFFFFFFFFFFB3
:1047D000FFFFFFFFFFFFFFFFFFFFFFB77FFFFFFFB1
:1047E000FFFFB77FFFFFFFFFFFFFFFFFFC77AFFF7C
:1047F000FFFFFFFFFFFFFFFFFFFFFFFFFFFFFFB711
:104800007FFFFFFFFFFFB77FFFFFFFFFFFFFFFFF00
:10481000B779FFFFFFFFFFFFFFFFFFFFFFFFFFFF76
:10482000FFFFFFB77FFFFFFFFFFFB77FFFFFFFFF28
:10483000FFFFFFE977BFFFFFFFFFEEFFFFEEFFFF88
:10484000FFFFFFFFFFFFFFB77FFFFFFFFFFFB77F08
:10485000FFFFFFFFFFFFFC889DFFFFFFFFFFEEEF65
:10486000FFEEFFFFFFFFFFFFFFFFFFB77FFFFFFF31
:10487000FFFFB77FFFFFFFFFFFFFC78AFFFFFFFFBD
:10488000FFFFEEEFFEEEFFFFFFFFFFFFFFFFFFB7B3
:104890007FFFFFFFFFFFB77FFFFFFFFFFFFE87BF29
:1048A000FFFFFFFFFFFFEEEEFEEEFFFFFFFFFFFF4C
:1048B000FFFFFFB77FFFFFFFFFFFB77FFFFFFFFF98
:1048C000FFFA7AFFFFFFFFFFFFFFEEFEEEEEFFFFB6
:1048D000FFFFFFFFFFFFFFB77FFFFFFFFFFFB77F78
:1048E000FFFFFD78EFF87CFFFFFFFFFFFFFFEEFE0D
:1048F000EFEEFFFFFFFFFFFFFFFFFFB77FFFFFFFB1
:10490000FFFFB78FFFFFFA77BFE77777777777BF3C
:10491000FFFFEEFEEFEEFFFFFFFFFFFFFFFFFFB821
:104920007FFFFFFFFFFFB87FFFFFFD78EFE777779F
:10493000777777BFFFFFEEFEEFEEFFFFFFFFFFFF92
:10494000FFFFEA8778BFFFFFFFEA7788BFFFFFFF1F
:10495000FFFFFE78787777BFFFFFFFFFFFFFFFFFC6
:10496000FFFFFFFFFFFC77777778EFFFFC77777724
:1049700078EFFFFFFFFFFD77777777BFFFFFFFFF40
:10498000FFFFFFFFFFFFFFFFFFF88BFFFB779FFF9E
:10499000F88BFFFB779FFFFFFFFFFC78FFFFFFFF18
:1049A000FFFFFFFFFFFFFFFFFFFFFFFFFFF9FFFF1D
:1049B000FFB77FFFF9FFFFFFB87FFFFFFFFFFC8816
:1049C000FFFFFFFFFFFFFFFFFFFFFFFFFFFFFFFFF7
:1049D000FFFFFFFFFFF78CFFFFFFFFFFF77CFFFFED
:1049E000FFFFFB89FFFFFFFFFFFFFFFFFFFFFFFF51
:1049F000FFFFFFFFFFFFFFFFFFF77CFFFFFFFFFF52
:104A0000F77CFFFFFFFFFB79FFFFFFFFFFFFFFFFCB
:104A1000FFFFFFFFFFFFFFFFFFFFFFFFFFC77FFF5E
:104A2000FFFFFFFFC77FFFFFFFFFFB7AFFFFFFFFD7
:104A3000FFFFFFFFFFFFFFFFFFFFFFFFFFFFFFFF86
:104A4000FF989FFFFFFFFFFF979FFFFFFFFFFA7792
:104A50008779BFFFFFFFFFFFFFFFFFFFFFFFFFFFA4
:104A6000FFFFFFFFF988EFFFFFFFFFF978EFFFFF80
:104A7000FFFFF977787879FFFFFFFFFFFFFFFFFF68
:104A8000FFFFFFFFFFFFFFFD978CFFFFFFFFFD977D
:104A90008CFFFFFFFFFFFFFFFFC977AFFFFFFFFFA7
:104AA000FFFFFFFFFFFFFFFFFFFFFFB789DFFFFFF4
:104AB000FFFFB779DFFFFFFFFFFFFFFFFFFFA77FCC
:104AC000FFFFFEEFFFFEEFFFFFFFFFFFFFFFF977A6
:104AD000BFFFFFFFFFF987BFFFFFFFFFFFFFFFFFE4
:104AE000FFFFF78CFFFFFEEEFFFEEFFFFFFFFFFF74
:104AF000FFFF988CFFFFFFFFFF978CFFFFFFFFFF7B
:104B0000FFFFFFFFFFFFF77BFFFFFEEEFFEEEFFF74
:104B1000FFFFFFFFFFFA79FFFFFFFFFFFA79FFFFBB
:104B2000FFFFFFFFFFFFFFFFFFFFD77DFFFFFEEE51
:104B3000EFEEEFFFFFFFFFFFFFE77EFFFFFFFFFF4F
:104B4000E77EFFFFFFFFFFFFFFFFFFFFFFFF978FE6
:104B5000FFFFFEEFEEEEEFFFFFFFFFFFFFB79FFF50
:104B6000FFFFFFFFB79FFFFFFFFFFFD78EFFF8BFDD
:104B7000FFC977BFFFFFFEEFEEFEEFFFFFFFFFFF76
:104B8000FFA77777777778FFA77877787778FFA888
:104B90007BFFF77777777BFFFFFFFEEFEEFEEFFF00
:104BA000FFFFFFFFFFA77777777778FFA778787702
:104BB0007778FFD78EFFFB87777BDFFFFFFFFEEF66
:104BC000EEFEEFFFFFFFFFFFFFFFFFFFFFFFFFFF17
:104BD000FFFFFFFFFFFFFFFFFFFFFFFFFFFFFFFFE5
:104BE000FFFFFFFFFFFFFFFFFFFFFFFFFFFFFFFFD5
:104BF000FFFFFFFFFFFFFFFFFFFFFFFFFFFFFFFFC5
:104C0000FFFFFFFFFFFFFFFFFFFFFFFFFFFFFFFFB4
:104C1000FFFFFFFFFFFFFFFFFFFFFFFFFFFFFFFFA4
:104C2000FFFFFFFFFFFFFFFFFFFFFFFFFFFFFFFF94
:104C3000FFFFFFFFFFFFFFFFFFFFFFFFFFFFFFFF84
:104C4000FFFFFFFFFFFFFFFFFFFFFFFFFFFFFFFF74
:104C5000FFFFFFFFFFFFFFFFFFFFFFFFFFFFFFFF64
:104C6000FFFFFFFFFFFFFFFFFFFFFFFFFFFFFFFF54
:104C7000FFFFFFFFFFFFFFFFFFFFFFFFFFFFFFFF44
:104C8000FFFFFFFFFFFFFFFFFFFFFFFFFFFFFFFF34
:104C9000FFFFFFFFFFFFFFFFFFFFFFFFFFFFFFFF24
:104CA000FFFFFFFFFFFFFFFFFFFFFFFFFFFFFFFF14
:104CB000FFFFFFFFFFFFFFFFFFFFFFFFFFFFFFFF04
:104CC000FFFFFFFFFFFFFFFFFFFFFFFFFFFFFFFFF4
:104CD000FFFFFFFFFFFFFFFFFFFFFFFFFFFFFFFFE4
:104CE000FFFFFFFFFFFFFFFFFFF978778778FFFFE8
:104CF000977878878FFFF977777788FFFF977777AF
:104D0000778FFFFFFFFFFFFFFFFFFFFFFFF97777C1
:104D10007778FFFF977777778FFFF977777778FF47
:104D2000FF977777878FFFFFFFFFFFFFFFFFFFFFF3
:104D3000FFFFFFFFFFFFFFFFFFFFFFFFFFFFFFFF83
:104D4000FFFFFFFFFFFFFFFFFFFFFFFFFFFFFFFF73
:104D5000FFFFFFFFFFFFFFFFFFFFFFFFFFFFFFFF63
:104D6000FFFFFFFFFFFFFFFFFFFFFFFFFFFFFFFF53
:104D7000FFFFFFFFFFFFFFFFFFFFFFFFFFFFFFFF43
:104D8000FFFFFFFFFFFFFFFFFFFFFFFFFFFFFFFF33
:104D9000FFFFFFFFFFFFFFFFFFFFFFFFFFFFFFFF23
:104DA000FFFFFFFFFFFFFFFFFFFFFFFFFFFFFFFF13
:104DB000FFFFFFFFFFFFFFFFFFFFFFFFFFFFFFFF03
:104DC000FFFFFFFFFFFFFFFFFFFFFFFFFFFFFFFFF3
:104DD000FFFFFFFFFFFFFFFFFFFFFFFFFFFFFFFFE3
:104DE000FFFFFFFFFFFFFFFFFFFFFFFFFFFFFFFFD3
:104DF000FFFFFFFFFFFFFFFFFFFFFFFFFFFFFFFFC3
:104E0000FFFFFFFFFFFFFFFFFFFFFFFFFFFFFFFFB2
:104E1000FFFFFFFFFFFFFFFFFFFFFFFFFFFFFFFFA2
:104E2000FFFFFFFFFFFFFFFFFFFFFFFFFFFFFFFF92
:104E3000FFFFFFFFFFFFFFFFFFFFFFFFFFFFFFFF82
:104E4000FFFFFFFFFFFFFFFFFFFFFFFFFFFFFFFF72
:104E5000FFFFB97879CFFFFFFFFFFFFFFB7779CF27
:104E6000FFFFFFFFFFFFFFFFFFFFFFFFFFFFFFFF52
:104E7000FFFFFFFFFFFA7787777BFFFFFFFFFFFD55
:104E80008777777BFFFFFFFFFFFFFFFFFFFFFFFF3E
:104E9000FFFFFFFFFFFFFFFFFFFAAEFFD977CFFF56
:104EA000FFFFFFF879DFF977CFFFFFFFFFFFFFFF7D
:104EB000FFFFFFFFFFFFFFFFFFFFFFFFFFFFFFFF02
:104EC000FF87AFFFFFFFFFB78FFFFF879FFFFFFF4A
:104ED000FFFFFFFFFFFFFFFFFFFFFFFFFFFFFFFFE2
:104EE000FFFFFFFFFF98AFFFFFFFFF98BFFFFFB778
:104EF0007FFFFFFFFFFFFFFFFFFFFFFFFFFFFFFF42
:104F0000FFFFFFFFFFFFFFFFFF97AFFFFFFFFF87E1
:104F1000DFFFFFF77CFFFFFFFFFFFFFFFFFFFFFF4C
:104F2000FFFFFFFFFFFFFFFFFFFFFFFFFE77EFFF2A
:104F3000FFFFFC78FFFFFFF87BFFFFFFFFFFFFFF96
:104F4000FFFFFFFFFFFFFFFFFFFFFFFFFFFFFFFF71
:104F5000B87BFFFFFFFFFB78FFFFFFF88BFFFFFF32
:104F6000FFFFFFFFFFFFFFFFFFFFFFFFFFFFFFFF51
:104F7000FFFFB78789CFFFFFFFFFFB78FFFFFFF938
:104F80007BFFFFFFFFFFFFFFFFFFFFFFFFFFFFFFB5
:104F9000FFFFFFFFFFFFB777779CFFFFFFFFFB7867
:104FA000FFFFFFF97BFFFFFFFFFFFFFFFFFFFFFF9B
:104FB000FFFFFFFFFFFFFFFFFFFFFFFFCA77BFFFFE
:104FC000FFFFFB78FFFFFFF97BFFFFFEEFFFFEEF28
:104FD000FFFFFFFFFFFFFFFFFFFFFFFFFFFFFFFFE1
:104FE000FFB78FFFFFFFFC77FFFFFFF87BFFFFFEA0
:104FF000EEFFFEEFFFFFFFFFFFFFFFFFFFFFFFFFE3
:10500000FFFFFFFFFFF77CFFFFFFFD87DFFFFFF7DD
:105010007DFFFFFEEEFFEEEFFFFFFFFFFFFFFFFF55
:10502000FFFFFFFFFFFFFFFFFFF77CFFFFFFFF8793
:10503000BFFFFFB78FFFFFFEEEEFEEEFFFFFFFFFBB
:10504000FFFFFFFFFFFFFFFFFFFFFFFFFFB78FFF28
:10505000FFFFFFA78FFFFF97BFFFFFFEEFEEEEEF13
:10506000FFFFFFFFFFFFFFFFFFFFFFFFFFB9BFFFD6
:10507000EA77AFFFD78EFFE879EFF978FFFFFFFE01
:10508000EFEEFEEFFFFFFFFFFFFFFFFFFFFFFFFF62
:10509000FFB87777787AFFFFA77BFFFC7778778D6B
:1050A000FFFFFFFEEFEEFEEFFFFFFFFFFFFFFFFF43
:1050B000FFFFFFFFFFFCA8877ACFFFFFD78EFFFF20
:1050C000D9778AEFFFFFFFFEEFEEFEEFFFFFFFFF56
:1050D000FFFFFFFFFFFFFFFFFFFFFFEB7779DFFF22
:1050E000FFFFFFFFFFFFA7FFFFFFFFFFFFFFFFFF28
:1050F000FFFFFFFFFFFFFFFFFFFFFFFFFFFFFB873C
:1051000087778FFFFFFFFFFFFFC977FFFFFFFFFFDD
:10511000FFFFFFFFFFFFFFFFFFFFFFFFFFFFFFFF9F
:10512000FFFFB779DFFB9FFFFFFFFFFFB97777FF37
:10513000FFFFFFFFFFFFFFFFFFFFFFFFFFFFFFFF7F
:10514000FFFFFFFFFFFE87AFFFFFFFFFFFFFFFFB3C
:10515000779B77FFFFFFFFFFFFFFFFFFFFFFFFFFD3
:10516000FFFFFFFFFFFFFFFFFFFA88FFFFFFFFFFCB
:10517000FFFFFFFBACFB87FFFFFFFFFFFFFFFFFF12
:10518000FFFFFFFFFFFFFFFFFFFFFFFFFFF87BFFBA
:10519000FFFFFFFFFFFFFFFFFFFB87FFFFFFFFFF9B
:1051A000FFFFFFFFFFFFFFFFFFFFFFFFFFFFFFFF0F
:1051B000FFC77FFFFFFFFFFFFFFFFFFFFFFB77FF43
:1051C000FFFFFFFFFFFFFFFFFFFFFFFFFFFFFFFFEF
:1051D000FFFFFFFFFFB78FB8779BFFFFFFFFFFFFCA
:1051E000FFFB77FFFFFFFFFFFFFFFFFFFFFFFFFF5B
:1051F000FFFFFFFFFFFFFFFFFFA79B777787AFFF53
:10520000FFFFFFFFFFFB77FFFFFFFFFFFFFFFFFF3A
:10521000FFFFFFFFFFFFFFFFFFFFFFFFFFA887BFAD
:10522000FF977BFFFFFFFFFFFFFB77FFFFFFFFFF06
:10523000FFFFFFFFFFFFFFFFFFFFFFFFFFFFFFFF7E
:10524000FFA77BFFFFF989FFFFFFFFFFFFFB77FF52
:10525000FFFFFFEEFFFFEEFFFFFFFFFFFFFFFFFF80
:10526000FFFFFFFFFFA78FFFFFFB77FFFFFFFFFFA2
:10527000FFFB77FFFFFFFFEEEFFFEEFFFFFFFFFFFC
:10528000FFFFFFFFFFFFFFFFFFB78FFFFFFC87FF61
:10529000FFFFFFFFFFFB77FFFFFFFFEEEFFEEEFFDD
:1052A000FFFFFFFFFFFFFFFFFFFFFFFFFFD77FFFB6
:1052B000FFFB78FFFFFFFFFFFFFB77FFFFFFFFEE26
:1052C000EEFEEEFFFFFFFFFFFFFFFFFFFFFFFFFF11
:1052D000FFF88AFFFFF97AFFFFFFFFFFFFFB77FF71
:1052E000FFFFFFEEFEEEEEFFFFFFFFFFFFFFFFFF02
:1052F000FFFFFFFFFFFC77AFFE977EFFD78EFFFF1C
:10530000FFFB77FFFFFFFFEEFEEFEEFFFFFFFFFF6C
:10531000FFFFFFFFFFFFFFFFFFFFB7777777CFFFAD
:10532000A77BFFFFFFFB77FFFFFFFFEEFEEFEEFF28
:10533000FFFFFFFFFFFFFFFFFFFFFFFFFFFFFC97E8
:1053400077AEFFFFD78EFFFFFFFB77FFFFFFFFEE7C
:10535000FEEFEEFFFFFFFFFFFFFFFFFFFFFFFFFF7F
:10536000FFFFFFFA7FFFFFFFFEA7878BFFFFFFFF17
:10537000FFFFFEA7778BFFFFFFFFFFFFFFFFFFFF92
:10538000FFFFFFFFFFFFFC977FFFFFFFC7777787D8
:105390008EFFFFFFFFFFC87877778EFFFFFFFFFFCD
:1053A000FFFFFFFFFFFFFFFFFFFB97788FFFFFFF70
:1053B00088BFFFB779FFFFFFFFFF88BFFFB789FFF7
:1053C000FFFFFFFFFFFFFFFFFFFFFFFFFFB779B703
:1053D0007FFFFFFF9FFFFFFB77FFFFFFFFFF9FFFA9
:1053E000FFFB78FFFFFFFFFFFFFFFFFFFFFFFFFF58
:1053F000FFBACFB78FFFFFFFFFFFFFFF77CFFFFFA2
:10540000FFFFFFFFFFFF77CFFFFFFFFFFFFFFFFF64
:10541000FFFFFFFFFFFFFFB77FFFFFFFFFFFFFFF64
:1054200077CFFFFFFFFFFFFFFFFF78CFFFFFFFFFFB
:10543000FFFFFFFFFFFFFFFFFFFFFFB77FFFFFFF44
:10544000FFFFFFFC87FFFFFFFFFFFFFFFFFC77FF72
:10545000FFFFFFFFFFFFFFFFFFFFFFFFFFFFFFB7A4
:105460007FFFFFFFFFFFFFF979FFFFFFFFFFFFFF58
:10547000FFF979FFFFFFFFFFFFFFFFFFFFFFFFFFC8
:10548000FFFFFFB77FFFFFFFFFFFFF978EFFFFFFCD
:10549000FFFFFFFFFF988EFFFFFFFFFFFFFFFFFFF4
:1054A000FFFFFFFFFFFFFFB77FFFFFFFFFFFD97881
:1054B000CFFFFFFFFFFFFFFFD978CFFFFFFFFFFF09
:1054C000FFFFFFFFFFFFFFFFFFFFFFB77FFFFFFFB4
:1054D000FFFB779DFFFFFFFFFFFFFFFB779DFFFFB8
:1054E000FFFFFEEFFFFEEFFFFFFFFFFFFFFFFFB736
:1054F0007FFFFFFFFF988BFFFFFFFFFFFFFFFF977F
:105500007BFFFFFFFFFFFEEEFFFEEFFFFFFFFFFF52
:10551000FFFFFFB77FFFFFFFF978CFFFFFFFFFFF20
:10552000FFFFF978CFFFFFFFFFFFFEEEFFEEEFFF7B
:10553000FFFFFFFFFFFFFFB77FFFFFFFA79FFFFFFB
:10554000FFFFFFFFFFFFA79FFFFFFFFFFFFFFEEE35
:10555000EFEEEFFFFFFFFFFFFFFFFFB77FFFFFFE55
:1055600077EFFFFFFFFFFFFFFFFE77EFFFFFFFFF7C
:10557000FFFFFEEFEEEEEFFFFFFFFFFFFFFFFFB8C5
:105580007FFFFFFB79FFFFFFFFFFFD88EFFB79FF48
:10559000FFFFFFFFFFFFFEEFEEFEEFFFFFFFFFFF4E
:1055A000FFFFFFB77FFFFFFA77787877788FFA777A
:1055B000BFFA77777778778FFFFFFEEFEEFEEFFF8A
:1055C000FFFFFFFFFFFFFFB77FFFFFFA77777778D7
:1055D000778FFD78EFFA87777777778FFFFFFEEF8A
:1055E000EEFEEFFFFFFFFFFFFFFFFB9778ACFFFF33
:1055F000FFFFFFFF978FFFFFFFFFFFA87777778FF2
:10560000FFFFFFFFFFFFFFFFFFFFFFFFFFFF977899
:105610007777BFFFFFFFFFFC878FFFFFFFFFFF973D
:105620008777777FFFFFFFFFFFFFFFFFFFFFFFFF92
:10563000FFFB79CFFD977CFFFFFFFFF8878FFFFF10
:10564000FFFFFF98BFFFFFFFFFFFFFFFFFFFFFFF11
:10565000FFFFFFFFFFFBBFFFFFF87AFFFFFFFFB772
:10566000878FFFFFFFFFFF97BFFFFFFFFFFFFFFFDA
:10567000FFFFFFFFFFFFFFFFFFFFFFFFFFFA79FFC5
:10568000FFFFFE88B78FFFFFFFFFFF87CFFFFFFF02
:10569000FFFFFFFFFFFFFFFFFFFFFFFFFFFFFFFF1A
:1056A000FFFA79FFFFFFF97BB78FFFFFFFFFFF775F
:1056B000DFFFFFFFFFFFFFFFFFFFFFFFFFFFFFFF1A
:1056C000FFFFFFFFFFF97AFFFFFFB79FB88FFFFFD4
:1056D000FFFFFF77EFFFFFFFFFFFFFFFFFFFFFFF72
:1056E000FFFFFFFFFFFFFFFFFFC77DFFFFFD78EF1D
:1056F000B78FFFFFFFFFFE777778BEFFFFFFFFFF4B
:10570000FFFFFFFFFFFFFFFFFFFFFFFFFC77AFFF84
:10571000FFF87BFFB78FFFFFFFFFFD77777777CF2E
:10572000FFFFFFFFFFFFFFFFFFFFFFFFFFFFFFFF89
:10573000B789FFFFFF979FFFB78FFFFFFFFFFFFFB7
:10574000FFFB877EFFFFFFFFFFFFFFFFFFFFFFFF66
:10575000FFFFFFE977BFFFFFFB78FFFFB78FFFFF7A
:10576000FFFFFFFFFFFFE87AFFFFFFEEFFFFEEFF07
:10577000FFFFFFFFFFFFFC889DFFFFFFC78DFFFFBF
:10578000B78FFFFFFFFFFFFFFFFFFA79FFFFFFEE7D
:10579000EFFFEEFFFFFFFFFFFFFFC87AFFFFFFFFF6
:1057A0009777777777777AFFFFFFFFFFFFFFFB7829
:1057B000FFFFFFEEEFFEEEFFFFFFFFFFFFFE77BFF5
:1057C000FFFFFFFF9777787777777AFFFFFFFFFF7D
:1057D000FFFFF979FFFFFFEEEEFEEEFFFFFFFFFF99
:1057E000FFFA7AFFFFFFFFFFFFFFFFFFB78FFFFF0B
:1057F000FFFFFFFFFFFFD77BFFFFFFEEFEEEEEFF99
:10580000FFFFFFFFFFF87CFFFFFFFFFFFFFFFFFF32
:10581000B78FFFFD78EFFB9CFFFB778FFFFFFFEE5D
:10582000FEEFEEFFFFFFFFFFFFE77777777877BFA9
:10583000FFFFFFFFB78FFFFA78BFFB77777779EF2E
:10584000FFFFFFEEFEEFEEFFFFFFFFFFFFE77877C2
:10585000778777BFFFFFFFFFB78FFFFD78EFFC98DB
:105860007779BFFFFFFFFFEEFEEFEEFFFFFFFFFFC9
:10587000FFFFFA7879DFFFFFFFFFFFFFFFFFFC7CF0
:10588000FFFFFFFFFFFFFFFFF99FFFFFFE9779DF9D
:10589000FFFFFFFFFFFF88AFB97CFFFFFFFFFFFFA8
:1058A000BAFFFE8EFFFFFFFFFFFFFFFFF99FFFFF25
:1058B000E89BD98FFFFFFFFFFFF98FFFFF98FFFFE6
:1058C000FFFFFFFF9AFFFFFFFFFFFFFFFFFFFFFF4D
:1058D000F99FFFFFFCFFFE7BFFFFFFFFFFE7AFFF2E
:1058E000FFC8BFC7C978BFF97778FC7DFFC9779F2C
:1058F000FA8779FFF99FFFFFFFFFFF7BFFFFFFFFA5
:10590000FFC7BFFFFFF7AFC78BF97BFF8AFFFC7DA7
:10591000FC79EBBFF9AEB7AFF99FFFFFFFFFFC7C4F
:10592000FFFFFFFFFFB7CFFFFFF89FC7BFFF89FF54
:105930008AFFFC7DF98FFFFFFFFFF99FF99FFFFFB3
:10594000FFFFF99FFFFFFFFFFFB7CFFFFFF89FC7E4
:10595000CFFFA8FF8AFFFC7DF8AFFFFFFFFFF99F95
:10596000F99FFFFFFFFFB7CFFFFFFFFFFFC7BFFF9D
:10597000FFE7AFC7DFFFA7FF8AFFFC7DF8AFFFFFA0
:10598000FA77779FF99FFFFFFFFB7BFFFFFFFFFF8A
:10599000FFE7AFFFFFC7CFC7CFFFA8FF8AFFFC7DA0
:1059A000F8AFFFFF97AFF99FF99FFFFFFFD8AFFF59
:1059B000FFFFFFFFFFF98FFFFF98FFC7BFFF89FFC2
:1059C0008AFFFC7DF98FFFFF89FFF99FF99FFFFF99
:1059D000FE89FFFFFFFFFFFFFFFF88AFB97CFFC716
:1059E0008BF98CFF98DBFC7DFC79ECBF98BDA89F00
:1059F000F99FFFFFF89FFFFFFFFFFFFFFFFFFA8701
:105A000089DFFFC7B978BFFFD877FC7DFFB8879FD4
:105A1000E977AB9FF99FFFFFC7777878FFFFFFFF1C
:105A2000FFFFFFFFFFFFFFC8DFFFFFFFFFFFFFFFDD
:105A3000FFFFFFFFFFFFFFFFFFFFFFFFFFFFFFFF76
:105A4000FFFFFFFFFFFFFFFFFFFFFFC8DFFFFFFFBD
:105A5000FFFFFFFFFFFFFFFFFFFFFFFFFFFFFFFF56
:105A6000FFFFFFFFFFFFFFFFFFFFFFFFFFFFFFC77E
:105A7000DFFFFFFFFFFFFFFFFFFFFFFFFFFFFFFF56
:105A8000FFFFFFFFFFFFFFFFFFFFFFFFFFFFFFFF26
:105A9000FFFFFFC7DFFFFFFFFFFFFFFFFFFFFFFF6E
:105AA000FFFFFFFFFFFFFFFFFFFFFFFFFFFFFFFF06
:105AB000FFFFFB9777AFFFFFFFFFFFFFFFFFFFFF3A
:105AC000FFFFFFA8FFFFFFFFFFF7BFFFFFFB877A86
:105AD000FFFFFFFFFFFF97ADDA9FFFFFFFFFFFFF15
:105AE000FFFFFFFFFFFFFFB9FFFFFFFFFFF7BFFF54
:105AF000FFA8AFB8AFFFFFFFFFFB7BFFFFFFFFFF7C
:105B0000FFFFFFFFFFFFFFFFFFFFFFFFFFFFFFFFA5
:105B1000FFF7BFFFFFFEFFFA8FFFFFFFFFF98FFFC9
:105B2000FFFFFE9779DFFFB9779DFD8AFFF89FA8F9
:105B3000FFEA787AFFF7BFFFFFFFFFFA8FFFFFFF53
:105B4000FFF8AFFFFFFFF89CD98FFFBACC88FFB7F3
:105B5000DF98FFA8FFF9AF97BFF7BFFFFFFFFFF97F
:105B60009FFFFFFFFFD7BFFFFFFFB7DFFF8AFFFFEA
:105B7000FFB7FFF99C7BFFA8FFFFFFF8AFF7BFFF60
:105B8000FFFFFFC8BFFFFFFFFFD7BFFFFFFF98FF6B
:105B9000FF99FFFFFFB7FFFD789FFFA8FFFFFFF80A
:105BA000AFF7BFFFFFFFFF89FFFFFFFFFFF7AFFF6B
:105BB000FFFF99FFFF98FFB87777FFFF97CFFFA808
:105BC000FFE97777AFF7BFFFFFFFF99FFFFFFFFF09
:105BD000FFF88FFFFFFF98FFFF99FB79DFB7FFFC0E
:105BE000789FFFA8FF88BFF8AFF7BFFFFFFF98EFD0
:105BF000FFFFFFFFFFFB7BFFFFFFB8DFFF8AFA8F8E
:105C0000FFB7FFF89E8BFFA8FE7BFFF8AFF7BFFF43
:105C1000FFFA8DFFFFFFFFFFFFFF97ADFABFF89C74
:105C2000D98EFB7BFA87FFA8FFA8EFA8FF89DB9836
:105C3000AFF7BFFFFFB7CFFFFFFFFFFFFFFFFB8700
:105C400078BFFE9779DFFF9779D7FC8BFFF89FA885
:105C5000FFC878BAAFF7BFFFFF9777777BFFFFFFEB
:105C6000FFFFFFFFFFFFFFFFFFFFFFFFFFFFFFFF44
:105C7000FFFFFFFFFFFFFFFFFFFFFFFFFFFFFFFF34
:105C8000FFFFFFFFFFFFFFFFFFFFFFFFFFFFFFFF24
:105C9000FFFFFFFFFFFFFFFFFFFFFFFFFFFFFFFF14
:105CA000FFFFFFFFFFFFFFFFFFFFFFFFFFFFFFFF04
:105CB000FFFFFFFFFFFFFFFFFFFFFFFFFFFFFFFFF4
:105CC000FFFFFFFFFFFFFFFFFFFFFFFFFFFFFFFFE4
:105CD000FFFFFFFFFFFFFFFFFFFFFFFFFFFFFFFFD4
:105CE000FFFFFFFFFFFFFFFFFFFFFFFFFFFFFFFFC4
:105CF000FF8AFFFFF7BFFD9777AFFA77779BFFFF2C
:105D0000FFFFFA7CFFFFFFFFFFFFFFFFFFD7CFC7BB
:105D1000CFFFFFFFFF8AFFFFF7BFF89CEA9FFA8FD4
:105D2000FB97BFFFFFFFF88AFFFFFFFFFFFFFFFFAB
:105D3000FFD8CFE8EFFFFFFFFF8AFFFFF7BFB8CF25
:105D4000FFFFFA8FFFF89FFFFFFFC8A8FFFFFFFFCD
:105D5000FFFFFFFFFFD7CFFFFFFFFFFFFF8AFFFF20
:105D6000F7BFB7CFFFFFFA8FFFF8AFFFFFFFA8D74E
:105D7000CFFF89FFFB7DFFB879B7CFC7DFFC9779ED
:105D8000FF8AFFFFF7BFE79EFFFFFA8FFFB7CFFF46
:105D9000FFFF8BF8AFFF89FFFB7DFC89FB87CFC737
:105DA000DFC89EB99F8AFFFFF7BFFC879DFFFA7887
:105DB000788BFFFFFFFC7DFB8FFF89FFFB7DF98F59
:105DC000FFB7CFC7DF98FFFC7C8AFFFFF7BFFFFA62
:105DD00077BFFA8FFEA8BFFFFFFA8FFD7CFF89FF18
:105DE000FB7DF8AFFFC8CFC7DF8AFFFF8A8AFFFFBE
:105DF000F7BFFFFFF97DFA8FFFF98FFFFFF8877775
:105E00007AFF89FFFB7DF8AFFFD7CFC7DF8AFFFF9F
:105E10008A8AFFFFE7BFFFFFFC7BFA8FFFFA7FFF55
:105E2000FFB7AAAA98FF89FFFB7DF8AFFFD7CFC7BE
:105E3000DF8AFFFF8A98FFFFB8DFFFFFFC7CFA8F45
:105E4000FFF98FFFFF98FFFFC7BF99FFF97DF98F1B
:105E5000FFB8CFC7DF98FFFC7CE89BFA8AFFBABF88
:105E6000B99FFA8FFDA7BFFFFF8BFFFFF89FA7BF6A
:105E7000A87DFC89FB97CFC7DFD79EB89FFD977899
:105E8000BFFFC8878AFFFA77778BFFFFFB7DFFFF95
:105E9000FA8FF9779C7DFFB879C8CFC8DFFC977976
:105EA000FFFFFFFFFFFFFFFFFFFFFFFFFFFFFFFF02
:105EB000FFFFFFFFFFFFFFFFFFFFFFFFFFFFFFFFF2
:105EC000FFFFFFFFFFFFFFFFFFFFFFFFFFFFFFFFE2
:105ED000FFFFFFFFFFFFFFFFFFFFFFFFFFFFFFFFD2
:105EE000FFFFFFFFFFFFFFFFFFFFFFFFFFFFFFFFC2
:105EF000FFFFFFFFFFFFFFFFFFFFFFFFFFFFFFFFB2
:105F0000FFFFFFFFFFFFFFFFFFFFFFFFFFFFFFFFA1
:105F1000FFFFFFFFFFFFFFFFFFFFFFFFFFFFFFFF91
:105F2000FFFFFFFFFFFFFFFFFFFFFFFFFFFFFFFF81
:105F3000FF7779F8777FFB9788BFFFFFF99FFFFD19
:105F40008BFFFFF89F977779CFFFFD9777AFFFFF24
:105F5000FFFFFFFFFFF8AFFF98FFC79ECAAFFFFF2D
:105F6000F99FFFFF89FFFFD7BF99FFB97BFFF89C1F
:105F7000EA9FFFFFFFFFFFFFFFF8AFFF99FFA8FFBA
:105F8000FFFFFFFFF99FFFFFB8FFFFB7EF99FFFF8C
:105F9000A8DFB7CFFFFFFFFFFFFFFFFFFFF8AFFF57
:105FA00099FFA8FFFFFFFFFFF99FFFFFD8BFFF99F1
:105FB000FF99FFFFE7AFB7CFFFFFFFFFFFFFFFFF37
:105FC000FFF8AFFFA9FFB79FFFFFFFFFF99FFFFF9C
:105FD000F89FFE7BFF99FFFFF89FE79EFFFFFFFF03
:105FE000FFFFFFFFFFF8AFFF99FFFA87AFFFFFFF4B
:105FF000F99FFFFFFA8FFB7EFF99FFFFF98FFC7778
:106000009DFFFFFFFFFFFFFFFFF8AFFF99FFFFD9E5
:1060100078CFFFFFF99FFFFFFC7CF98FFF99FFFF0F
:10602000F98FFFFA78BFFFFFFFFFFFFFFFF8AFFF19
:1060300099FFFFFFE88FFFFFF99FFFFFFF8AF8BF7F
:10604000FF99FFFFF89FFFFFF97DFFFFFFFFFFFFB5
:10605000FFF8AFFF99FFFFFFFB7EFFFFF99FFFFFF8
:10606000FFA8B7DFFF99FFFFD7BFFFFFFC7BFFFF54
:10607000FFFFFFFFFFF8AFFF99FFFFFFFB8FFFFF61
:10608000F99FFFFFFFC798FFFF99FFFF98FFFFFFF2
:10609000FC7CFFFFFFFFFFFFFFF8AFFF99FFAACFD8
:1060A000A8AFFFFFF99AAAAEFFF88AFFFF99FFA9F0
:1060B0007CFFBABFB99FFFFFFFFFFFFFFF7779F8B3
:1060C000777FB8778BFFFFFFF977777CFFFA7CFF4C
:1060D000FF97788ADFFFC8777AFFFFFFFFFFFFFF98
:1060E000FFFFFFFFFFFFFFFFFFFFFFFFFFFFFFFFC0
:1060F000FFFFFFFFFFFFFFFFFFFFFFFFFFFFFFFFB0
:10610000FFFFFFFFFFFFFFFFFFFFFFFFFFFFFFFF9F
:10611000FFFFFFFFFFFFFFFFFFFFFFFFFFFFFFFF8F
:10612000FFFFFFFFFFFFFFFFFFFFFFFFFFFFFFFF7F
:10613000FFFFFFFFFFFFFFFFFFFFFFFFFFFFFFFF6F
:10614000FFFFFFFFFFFFFFFFFFFFFFFFFFFFFFFF5F
:10615000FFFFFFFFFFFFFFFFFFFFFFFFFFFFFFFF4F
:10616000FFFFFFFFFFFFFFFFFFFFFFFFFFFFFFFF3F
:10617000FFFFFA7879DFFFFFFFFFFFFFFFFFFC7CE7
:10618000FFFFFFFFFFFFFFFFF99FFFFFFFFB7BFF0D
:10619000FFFFFFFFFFFF88AFB97CFFFFFFFFFFFF9F
:1061A000BAFFFE8EFFFFFFFFFFFFFFFFF99FFFFF1C
:1061B000FFA88BFFFFFFFFFFFFF98FFFFF98FFFF97
:1061C000FFFFFFFF9AFFFFFFFFFFFFFFFFFFFFFF44
:1061D000F99FFFFFFA8B7BFFFFFFFFFFFFE7AFFF9A
:1061E000FFC8BFC7C978BFF97778FC7DFFC9779F23
:1061F000FA8779FFF99FFFFFFEDF8BFFFFFFFFFFAD
:10620000FFC7BFFFFFF7AFC78BF97BFF8AFFFC7D9E
:10621000FC79EBBFF9AEB7AFF99FFFFFFFFF7BFF44
:10622000FFFFFFFFFFB7CFFFFFF89FC7BFFF89FF4B
:106230008AFFFC7DF98FFFFFFFFFF99FF99FFFFFAA
:10624000FFFF7BFFFFFFFFFFFFB7CFFFFFF89FC7F9
:10625000CFFFA8FF8AFFFC7DF8AFFFFFFFFFF99F8C
:10626000F99FFFFFFFFF7BFFFFFFFFFFFFC7BFFFA0
:10627000FFE7AFC7DFFFA7FF8AFFFC7DF8AFFFFF97
:10628000FA77779FF99FFFFFFFFF7BFFFFFFFFFF7D
:10629000FFE7AFFFFFC7CFC7CFFFA8FF8AFFFC7D97
:1062A000F8AFFFFF97AFF99FF99FFFFFFFFF7BFF5D
:1062B000FFFFFFFFFFF98FFFFF98FFC7BFFF89FFB9
:1062C0008AFFFC7DF98FFFFF89FFF99FF99FFFFF90
:1062D000FFFF7BFFFFFFFFFFFFFF88AFB97CFFC71A
:1062E0008BF98CFF98DBFC7DFC79ECBF98BDA89FF7
:1062F000F99FFFFFFFFF7BFFFFFFFFFFFFFFFA8715
:1063000089DFFFC7B978BFFFD877FC7DFFB8879FCB
:10631000E977AB9FF99FFFFFFFFF7BFFFFFFFFFFC9
:10632000FFFFFFFFFFFFFFC8DFFFFFFFFFFFFFFFD4
:10633000FFFFFFFFFFFFFFFFFFFFFFFFFFFFFFFF6D
:10634000FFFFFFFFFFFFFFFFFFFFFFC8DFFFFFFFB4
:10635000FFFFFFFFFFFFFFFFFFFFFFFFFFFFFFFF4D
:10636000FFFFFFFFFFFFFFFFFFFFFFFFFFFFFFC775
:10637000DFFFFFFFFFFFFFFFFFFFFFFFFFFFFFFF4D
:10638000FFFFFFFFFFFFFFFFFFFFFFFFFFFFFFFF1D
:10639000FFFFFFC7DFFFFFFFFFFFFFFFFFFFFFFF65
:1063A000FFFFFFFFFFFFFFFFFFFFFFFFFFFFFFFFFD
:1063B000FFFFFB9777AFFFFFFFFFFFFFFFFFFFFF31
:1063C000FFFFFFA8FFFFFFFFFFF7BFFFFFFFB7BF04
:1063D000FFFFFFFFFFFF97ADDA9FFFFFFFFFFFFF0C
:1063E000FFFFFFFFFFFFFFB9FFFFFFFFFFF7BFFF4B
:1063F000FFFA78BFFFFFFFFFFFFB7BFFFFFFFFFF01
:10640000FFFFFFFFFFFFFFFFFFFFFFFFFFFFFFFF9C
:10641000FFF7BFFFFFA8B7BFFFFFFFFFFFF98FFF29
:10642000FFFFFE9779DFFFB9779DFD8AFFF89FA8F0
:10643000FFEA787AFFF7BFFFFFEDF7BFFFFFFFFF2F
:10644000FFF8AFFFFFFFF89CD98FFFBACC88FFB7EA
:10645000DF98FFA8FFF9AF97BFF7BFFFFFFFF7BFB8
:10646000FFFFFFFFFFD7BFFFFFFFB7DFFF8AFFFF81
:10647000FFB7FFF99C7BFFA8FFFFFFF8AFF7BFFF57
:10648000FFFFF8BFFFFFFFFFFFD7BFFFFFFF98FF32
:10649000FF99FFFFFFB7FFFD789FFFA8FFFFFFF801
:1064A000AFF7BFFFFFFFF7BFFFFFFFFFFFF7AFFF34
:1064B000FFFF99FFFF98FFB87777FFFF97CFFFA8FF
:1064C000FFE97777AFF7BFFFFFFFF7BFFFFFFFFFE2
:1064D000FFF88FFFFFFF98FFFF99FB79DFB7FFFC05
:1064E000789FFFA8FF88BFF8AFF7BFFFFFFFF7BF98
:1064F000FFFFFFFFFFFB7BFFFFFFB8DFFF8AFA8F85
:10650000FFB7FFF89E8BFFA8FE7BFFF8AFF7BFFF3A
:10651000FFFFF7BFFFFFFFFFFFFF97ADFABFF89C3C
:10652000D98EFB7BFA87FFA8FFA8EFA8FF89DB982D
:10653000AFF7BFFFFFFFF8BFFFFFFFFFFFFFFB87C6
:1065400078BFFE9779DFFF9779D7FC8BFFF89FA87C
:10655000FFC878BAAFF7BFFFFFFFF7BFFFFFFFFF2E
:10656000FFFFFFFFFFFFFFFFFFFFFFFFFFFFFFFF3B
:10657000FFFFFFFFFFFFFFFFFFFFFFFFFFFFFFFF2B
:10658000FFFFFFFFFFFFFFFFFFFFFFFFFFFFFFFF1B
:10659000FFFFFFFFFFFFFFFFFFFFFFFFFFFFFFFF0B
:1065A000FFFFFFFFFFFFFFFFFFFFFFFFFFFFFFFFFB
:1065B000FFFFFFFFFFFFFFFFFFFFFFFFFFFFFFFFEB
:1065C000FFFFFFFFFFFFFFFFFFFFFFFFFFFFFFFFDB
:1065D000FFFFFFFFFFFFFFFFFFFFFFFFFFFFFFFFCB
:1065E000FFFFFFFFFFFFFFFFFFFFFFFFFFFFFFFFBB
:1065F000FFA79FFFFFF87CFFFFC7BFFFFFFFFFFF65
:10660000FFFFFFC7DFFFFFFFFFFFFFFFFFFFFFFFF2
:10661000FFFFFFFFFFA87EFFFFB87CFFFF989FFFF3
:10662000FFFFFFFFFFFFFFC7DFFFFFFFFFFFFFFFD2
:10663000FFFFFFFFFFFFFFFFFFA98BFFFF997CFF1D
:10664000FF8A7DFFFFFFFFFFFFFFFFC8DFFFFFFFA8
:10665000FFFFFFFFFFFFFFFFFFFFFFFFFFA999FF06
:10666000FF8B7CFFFB7E8BFFFFFFFA9B889CFFC7A5
:10667000DFFA8779FF89FFFF89FFA779EFFA9D8805
:10668000CFA9B8FFFB8D7CFFF99FA8FFFFFFFA8918
:10669000BD98EFC7DFF9AEB7AFB8FFFC8CF98BD967
:1066A0009FFA88BEFFA9F8BFF9AD7CFFF8BFC7DF2E
:1066B000FFFFFA7CFFE7BFC7DFFFFFF99FE8BFFAE4
:1066C0008FD7BFFC7BFA7BFFFFA9F99FE7CD7CFF4B
:1066D000B7EFF8AFFFFFFA8FFFF89FC7DFFFFFF9B3
:1066E0009FF99FF8AFB7EFFF8AFA8FFFFFA9FB8FE3
:1066F000B8FD7CFF9777778FFFFFFA8FFFF99FC771
:10670000DFFA77789FFB8FC7CFB777777AFA8FFF5B
:10671000FFA9FF8B9AFD7CFE89AAAA7CFFFFFA7F66
:10672000FFF89FC8DF97AFF99FFF8BA8FFB7FFFF68
:10673000FFFA8FFFFFA9FF997CFD7CFB7EFFFF8A9C
:10674000FFFFFA7CFFD7BFC7DF89FFF99FFF998A58
:10675000FFD7CFFFFFFA8FFFFFA9FFB78FFD7CF9AF
:106760009FFFFFA8FFFFFA89BD98FFC7DF98BDA86C
:106770009FFFB87CFFF98AFBAFFA8FFFFFA9FFF8F4
:10678000AFFD7CD8BFFFFFC7CFFFFA8B879DFFC748
:10679000DFE977AB9FFFF88FFFFFA8789FFA8FFFA5
:1067A000FFFFFFFFFFFFFFFFFFFFFFFFFFFFFA8F6E
:1067B000FFFFFFFFFFFFFFFFFFFFF8AFFFFFFFFF40
:1067C000FFFFFFFFFFFFFFFFFFFFFFFFFFFFFFFFD9
:1067D000FFFFFA8FFFFFFFFFFFFFFFFFFFFFC7CFA6
:1067E000FFFFFFFFFFFFFFFFFFFFFFFFFFFFFFFFB9
:1067F000FFFFFFFFFFFFFA8FFFFFFFFFFFFFFFFF1E
:10680000FFDC89FFFFFFFFFFFFFFFFFFFFFFFFFF31
:10681000FFFFFFFFFFFFFFFFFFFFFA8FFFFFFFFFFD
:10682000FFFFFFFFFF879FFFFFFFFFFFFFFFFFFF50
:10683000FFFFFF98FFFFFFFFFFFFFFFFFFFFFFFFCF
:10684000FFFFFFFFFFFFFFFFFFFFFFFFFFFFFFFF58
:10685000FFFFFFFFFFFFFD88CFFFFFFFFFFFFFF8F8
:10686000FFFFFFFFFFFFFFFFFFFFFFFFFFFFFFFF38
:10687000FFFFFFFFFFFFFFFFFFFFFB899FFFFFFF02
:10688000FFFFFFC7FFFFFFFFFFFFFFFFFFFFFFFF50
:10689000FFFFFFFFFFFFFFFFFFFFFFFFFFFFF8AB63
:1068A0008FFFF89FFFB7DC7777BFFA778BFFFFFF8B
:1068B000FFFFFFFFFFFFFFFFFFFFFFFFFFFFFFFFE8
:1068C000FFFFC7CE7BFFF89FFFB7DFB7FFFF98BF83
:1068D000A7CFFFFFFFFFFFFFFFFFFFFFFFFFFFFF50
:1068E000FFFFFFFFFFFFA8FF99FFF89FFFB7DFB78C
:1068F000FFFC7BFFF99FFFFFFFFFFFFFFFFFFFFF95
:10690000FFFFFFFFFFFFFFFFFFFF8AFFB8FFF89FBA
:10691000FFB7DFB7FFFB7EFFFB7FFFFFFFFFFFFF40
:10692000FFFFFFFFFFFFFFFFFFFFFFFFFFFC77778A
:1069300077BFF89FFFB7DFB8FFFB7FFFFB7EFFFF4E
:10694000FFFFFFFFFFFFFFFFFFFFFFFFFFFFFFFF57
:10695000FFFA8AAAA99FF89FFFB7DFB7FFFB7EFF68
:10696000FB8FFFFFFFFFFFFFFFFFFFFFFFFFFFFFAB
:10697000FFFFFFFFFFF8AFFFFB7EF99FFF97DFB739
:10698000EFFD7BFFF99FFFFFFFFFFFFFFFFFFFFF13
:10699000FFFFFFFFFFFFFFFFFFC7CFFFFE7BFA7B7D
:1069A000FA87DFC8AFCF98BF97BFFFFFFFFFFFFF9A
:1069B000FFFFFFFFFFFFFFFFFFFFFFFFFF98FFFF4E
:1069C000FF99FF9779C7DFFA78AFFA778BFFFFFF60
:1069D000FFFFFFFFFFFFFFFFFFFFFFFFFFFFFFFFC7
:1069E000FFFFFFFFFFFFFFFFFFFFFFFFFFFFFFFFB7
:1069F000FFFFFFFFFFFFFFFFFFFFFFFFFFFFFFFFA7
:106A0000FFFFFFFFFFFFFFFFFFFFFFFFFFFFFFFF96
:106A1000FFFFFFFFFFFFFFFFFFFFFFFFFFFFFFFF86
:106A2000FFFFFFFFFFFFFFFFFFFFFFFFFFFFFFFF76
:106A3000FFFFFFFFFFFFFFFFFFFFFFFFFFFFFFFF66
:106A4000FFFFFFFFFFFFFFFFFFFFFFFFFFFFFFFF56
:106A5000FFFFFFFFFFFFFFFFFFFFFFFFFFFFFFFF46
:106A6000FFFFFFFFFFFFFFFFFFFFFFFFFFFFFFFF36
:106A7000FFFFFFDA9FFFFFFFFFFFFFFFEB988DFF98
:106A8000FEA888ADFFFFFFFFFDA888BEFFFFFFFF48
:106A9000C9889CFFFFFFFA777F7FFFFFFFFFFFFDA5
:106AA000879AAEFFB78AAA87BFFFFFFFA78AA98789
:106AB000CFFFFFE978AA879EFFFF98877F8FFFFFB0
:106AC000FFFFFFE88DFFFFFB8AEFFFFB7AFFFFFA76
:106AD0007BFFFFEA8CFFFF97CFFFFC89FFFA7777F8
:106AE0007F7FF7FFFFFFFFB7EFFFFFD7AFFFFFFF8E
:106AF000B7CFFFB7CFFFFFFFA7EFFC7CFFFFFFC7BC
:106B0000CFE777778F8FF7FFFFFFFF89FFFFFF98B2
:106B1000FFFFFFFFF98FFF8AFFFFFFFFF8AFF98F3D
:106B2000FFFFFFF89FB778777F7F87FFFFFFFF7B2F
:106B3000FFFFFE7CFFFFFFFFFD7DFC7EFFFFFFFFF1
:106B4000FB8FF8BFFFFFFFFB8F9877777F7F78FF82
:106B5000FFFFFE8CFFFFFC7EFFFFFFFFFF8BFA8F26
:106B6000FFFFFFFFFD7DF7BFFFFFFFFB7F8777770D
:106B70007F7F77F7FFFFFE7CFFFFFB7FFFFFFFFFBD
:106B8000FF8AF99FFFFFFFFFFE7CF7BFFFFFFFFBC0
:106B90008F8787777F7F77F7FFFFFE7CFFFFFB8F75
:106BA000FFFFFFFFFF8AF99FFFFFFFFFFE7CF7BF9C
:106BB000FFFFFFFB8F9778778F7F77FFFFFFFE7CCC
:106BC000FFFFFC7EFFFFFFFFFF8BFA8FFFFFFFFF42
:106BD000FE7DF7BFFFFFFFFB7FB778777F7F78FFF2
:106BE000FFFFFE7CFFFFFE7CFFFFFFFFFD8DFC7EB5
:106BF000FFFFFFFFFB7EF7BFFFFFFFFB8FE777770E
:106C00007F7FF7FFFFFFFE7CFFFFFF99FFFFFFFF86
:106C1000F98FFF8AFFFFFFFFF89FF8BFFFFFFFFB21
:106C20008FFA78777F7FF8FFFFFFFE7CFFFFFFD7AB
:106C3000BFFFFFFFC7CFFFB7DFFFFFFFA7DFF7BF34
:106C4000FFFFFFFB8FFF97878F7FFFFFFFFFFE7C1C
:106C5000FFFFFFFB7BFFFFFB8AFFFFF98CFFFFEAD3
:106C60007BFFF8BFFFFFFFFB8FFFFA777F7FFFFF00
:106C7000FFFFFE7CFFFFFFFFB78ABA88AFFFFFFF71
:106C8000A78ABA87BFFFF7BFFFFFFFFB7FFFFFDACF
:106C90009FFFFFFFFFFFFF9DFFFFFFFFFDA888ADE8
:106CA000FFFFFFFFFC9888AEFFFFF9CFFFFFFFFC5F
:106CB0009FFFFFFFDA77878AFFFFFFFFFFFB779ACF
:106CC000AA778EFFFFFFFFD77BFFFFF978FFFFFF5B
:106CD000FF979FFFFFFF87BFFFFFFD87EFFFFFFFCE
:106CE000B79FFFFFFB79FFFFFFFFF77FFFFFF98BE8
:106CF000FFFFFFFFF97CFFFFF88DFFFFFFFFFA7B2F
:106D0000FFFFF77FFFFFFFFFFB7AFFFFE78FFFFF2C
:106D1000FFFFFB79FFFFD88FFFFFFFFFFB79FFFF2E
:106D2000C78FFFFFFFFFFC79FFFFC78FFFFFFFFF4C
:106D3000FC79FFFFC78FFFFFFFFFFC79FFFFE78FA5
:106D4000FFFFFFFFFB79FFFFE87FFFFFFFFFFB7AFD
:106D5000FFFFF77EFFFFFFFFFA7AFFFFF97CFFFFDF
:106D6000FFFFF97BFFFFFA7AFFFFFFFFF87DFFFFD0
:106D7000FC88FFFFFFFFC78FFFFFFF88BFFFFFFFFC
:106D800097AFFFFFFFB78EFFFFFB78EFFFFFFFF925
:106D900088BFFFA77BFFFFFFFFFF97777778BFFFD5
:106DA000FFFFFFFFFFAAAABFFFFFFFFFFFFFFFFFDD
:106DB000A87FFFFFFFFFFFFFFFF9878FFFFFFFFFA8
:106DC000FFFFFD87887FFFFFFFFFFFFFB779F77F9A
:106DD000FFFFFFFFFFF978AFF77FFFFFFFFFFFF92E
:106DE0007BFFF77FFFFFFFFFFFFFFFFFF77FFFFF47
:106DF000FFFFFFFFFFFFF77FFFFFFFFFFFFFFFFF2B
:106E0000F77FFFFFFFFFFFFFFFFFF77FFFFFFFFFA2
:106E1000FFFFFFFFF77FFFFFFFFFFFFFFFFFF77F92
:106E2000FFFFFFFFFFFFFFFFF77FFFFFFFFFFFFFFA
:106E3000FFFFF77FFFFFFFFFFFFFFFFFF77FFFFF72
:106E4000FFFFFFFFFFFFF77FFFFFFFFFFFFFFFFFDA
:106E5000F77FFFFFFFFFFFFFFFFFF77FFFFFFFFF52
:106E6000FFFFFFFFF77FFFFFFFFFFFFFFFFFF77F42
:106E7000FFFFFFFFFFFFFFFFF77FFFFFFFFFFFFFAA
:106E8000FFFFF77FFFFFFFFFFFFFFFFFF77FFFFF22
:106E9000FFFFFFFFFFFFF77FFFFFFFFFFFFFFFFF8A
:106EA000FAAFFFFFFFFFFFFFA878779CFFFFFFFF10
:106EB000FFA777AAA977BFFFFFFFF977BFFFFFB84A
:106EC0007CFFFFFFFCADFFFFFFFA79FFFFFFFFFF35
:106ED000FFFFFFFE77FFFFFFFFFFFFFFFFFF87CFF3
:106EE000FFFFFFFFFFFFFFFF97CFFFFFFFFFFFFF4A
:106EF000FFFF87CFFFFFFFFFFFFFFFFF77EFFFFFE2
:106F0000FFFFFFFFFFFB78FFFFFFFFFFFFFFFFF922
:106F10007BFFFFFFFFFFFFFFFFC88EFFFFFFFFFFAD
:106F2000FFFFFE88BFFFFFFFFFFFFFFFF979FFFFB5
:106F3000FFFFFFFFFFFFA78FFFFFFFFFFFFFFFFB2D
:106F400077DFFFFFFFFFFFFFFFB78CFFFFFFFFFFB4
:106F5000FFFFFC77BFFFFFFFFFFFFFFFD87AFFFFB8
:106F6000FFFFFFFFFFFE889FFFFFFFFFFFFFFFF90F
:106F700079FFFFFFFFFFFFFFFF978FFFFFFFFFFF7F
:106F8000FFFFFA88EFFFFFFFFFFFFFFFC87777776C
:106F90007777877CFFFFDAAAAAAAAAAAAAAEFFFF80
:106FA000FFFBA777879BFFFFFFFFFC9789AAAA87B4
:106FB0008EFFFFFFB789DFFFFFE988FFFFFFEABF12
:106FC000FFFFFFFE87CFFFFFFFFFFFFFFFFF97AF32
:106FD000FFFFFFFFFFFFFFFFB7AFFFFFFFFFFFFF59
:106FE000FFFFB7AFFFFFFFFFFFFFFFFF97BFFFFFF1
:106FF000FFFFFFFFFFFD78DFFFFFFFFFFFFFFFD871
:1070000079FFFFFFFFFFFFFFDA789FFFFFFFFFFB26
:107010007778778AFFFFFFFFFFFDAAAAA8779DFF79
:10702000FFFFFFFFFFFFFFD978EFFFFFFFFFFFFF2D
:10703000FFFF989FFFFFFFFFFFFFFFFFD77FFFFFCF
:10704000FFFFFFFFFFFFF87CFFFFFFFFFFFFFFFFDA
:10705000F98CFFFFFFFFFFFFFFFFF87CFFFFFFFF43
:10706000FFFFFFFFE77FFFFFFFFFFFFFFFFFA79F80
:10707000FFFFBBFFFFFFFFFB77CFFFFFA79AEFFFED
:10708000FC977BFFFFFFDA7877777878BFFFFFFF09
:10709000FFFEAAAAAAFFFFFFFFFFFFFFFFFFFFD728
:1070A0007CFFFFFFFFFFFFFFFF977CFFFFFFFFFF5E
:1070B000FFFFFB777CFFFFFFFFFFFFFFD7787CFF21
:1070C000FFFFFFFFFFFF97A97CFFFFFFFFFFFFFB15
:1070D00078F98CFFFFFFFFFFFFD78CF97CFFFFFFE4
:1070E000FFFFFF97AFF97CFFFFFFFFFFFB78FFF982
:1070F0007CFFFFFFFFFFD77CFFF97CFFFFFFFFFF57
:1071000097AFFFF98CFFFFFFFFFB78FFFFF97CFFD4
:10711000FFFFFFD77CFFFFF97CFFFFFFFF97AFFF6B
:10712000FFF97CFFFFFFFB78FFFFFFF98CFFFFFFFC
:10713000D87CFFFFFFF97CFFFFFF97AFFFFFFFF950
:107140007CFFFFFB78777778777877777BFDAAAA43
:10715000AAAAAAA879AAADFFFFFFFFFFFFF97CFF4B
:10716000FFFFFFFFFFFFFFF97CFFFFFFFFFFFFFFB8
:10717000FFF97CFFFFFFFFFFFFFFFFF97CFFFFFF31
:10718000FFFFFFFFFFF97CFFFFFFFFFFFFFFFFFB9C
:10719000AEFFFFFFFFC77777777877BFFFFFFFB8B6
:1071A0009AAAAAAAAADFFFFFFFB7AFFFFFFFFFFF60
:1071B000FFFFFFB7BFFFFFFFFFFFFFFFFFA7BFFFFF
:1071C000FFFFFFFFFFFFFF98BFFFFFFFFFFFFFFF76
:1071D000FF97CFFFFFFFFFFFFFFFFF87DFFFFFFFEF
:1071E000FFFFFFFFFF87EFFFFFFFFFFFFFFFFF78BE
:1071F000A777779AFFFFFFFFFE8779AAA9778BFF12
:10720000FFFFFFBBFFFFFFF977CFFFFFFFFFFFFF90
:10721000FFFF978FFFFFFFFFFFFFFFFFF87CFFFFE0
:10722000FFFFFFFFFFFFF97AFFFFFFFFFFFFFFFFF9
:10723000FB7AFFFFFFFFFFFFFFFFFB7AFFFFFFFF70
:10724000FFFFFFFFFB7AFFFFFFFFFFFFFFFFF97A62
:10725000FFFFFFFFFFFFFFFFF87CFFFFFFFFFFFFC8
:10726000FFFFA78FFFFFFBCFFFFFFFFB77CFFFFFE6
:10727000F879BFFFFB977BFFFFFFFB987877777963
:10728000CFFFFFFFFFFFBAAAAAFFFFFFFFFFFFFF2D
:10729000FFCA778778DFFFFFFFFFF9778AAAA8BFC9
:1072A000FFFFFFFF978BFFFFFFFFFFFFFFF978EF67
:1072B000FFFFFFFFFFFFFFC87DFFFFFFFFFFFFFF97
:1072C000FF97AFFFFFFFFFFFFFFFFE77EFFFFFFF1F
:1072D000FFFFFFFFFB89FFFFFFFFFFFFFFFFFA7BC1
:1072E000FFFFFFFFFFFFFFFFF98CFB987879BFFFDF
:1072F000FFFFF87C877AAA9879FFFFFFF77789FF6D
:10730000FFFD87AFFFFFF778BFFFFFFFD77DFFFFD0
:10731000F779FFFFFFFFFA7AFFFFF88CFFFFFFFF0F
:10732000FC79FFFFF77EFFFFFFFFFD78FFFFF87D91
:10733000FFFFFFFFFE78FFFFF97CFFFFFFFFFD78F7
:10734000FFFFFA7AFFFFFFFFFC79FFFFFC78FFFFEA
:10735000FFFFFA7AFFFFFF87AFFFFFFFE77CFFFF2A
:10736000FFC77BFFFFFF979FFFFFFFFA77AFFFC9C4
:1073700088EFFFFFFFFFB78778789EFFFFFFFFFFD3
:10738000FFBAAAAEFFFFFFFFB777777777777778F7
:10739000FFFFDAAAAAAAAAAAA879FFFFFFFFFFFFA8
:1073A000FFFFF87CFFFFFFFFFFFFFFFFB78FFFFF2F
:1073B000FFFFFFFFFFFF98BFFFFFFFFFFFFFFFFD86
:1073C00087EFFFFFFFFFFFFFFFFA79FFFFFFFFFFE0
:1073D000FFFFFFF87CFFFFFFFFFFFFFFFFB78FFFFF
:1073E000FFFFFFFFFFFFFF97BFFFFFFFFFFFFFFF55
:1073F000FD77EFFFFFFFFFFFFFFFFA79FFFFFFFFC2
:10740000FFFFFFFFF88CFFFFFFFFFFFFFFFFB78FBE
:10741000FFFFFFFFFFFFFFFF97AFFFFFFFFFFFFF34
:10742000FFFD77EFFFFFFFFFFFFFFFFA79FFFFFF91
:10743000FFFFFFFFFFF87BFFFFFFFFFFFFFFFFB72F
:107440008FFFFFFFFFFFFFFFFF98AFFFFFFFFFFF73
:10745000FFFFFE77DFFFFFFFFFFFFFFFFA79FFFF70
:10746000FFFFFFFFFFFFF87BFFFFFFFFFFFFFFFFB7
:10747000B78FFFFFFFFFFFFFFFFFCABFFFFFFFFF49
:10748000FFFFFFFFB977877AEFFFFFFFFFF9789AD9
:10749000AA877BFFFFFFFFA78CFFFFFA77DFFFFFC5
:1074A000FE78CFFFFFFF97AFFFFFFB79FFFFFFFFE6
:1074B000C78FFFFFFB7AFFFFFFFFE78FFFFFFB791F
:1074C000FFFFFFFFC78FFFFFFD78FFFFFFFFA79FB5
:1074D000FFFFFF879FFFFFFB77CFFFFFFFD879DF1D
:1074E000FF978BFFFFFFFFFE9779A878BFFFFFFF95
:1074F000FFFFFA87777FFFFFFFFFFFFD9779A787E1
:10750000BFFFFFFFFFC879DFFFA779FFFFFFFD7710
:10751000AFFFFFFD879FFFFFF989FFFFFFFFD87DCA
:10752000FFFFF87CFFFFFFFFF97BFFFFE77FFFFF17
:10753000FFFFFB7AFFFFE78FFFFFFFFFFB7AFFFFF5
:10754000F77FFFFFFFFFFA7AFFFFF97BFFFFFFFFE7
:10755000F87CFFFFFB77CFFFFFFF979FFFFFFFA7A1
:107560007AFFFFB878EFFFFFFFFB788787779FFFF1
:10757000FFFFFFFFFBAAAABFFFFFFFFFFFFFA877E8
:10758000779CFFFFFFFFFFE877AAA978AFFFFFFF17
:10759000FF889FFFFFB77BFFFFFFFB78FFFFFFFB2D
:1075A00077EFFFFFF87CFFFFFFFF97AFFFFFD78F5D
:1075B000FFFFFFFFB78FFFFFB79FFFFFFFFFF77DC5
:1075C000FFFFB7AFFFFFFFFFF97CFFFFB7AFFFFF84
:1075D000FFFFFA7BFFFFB89FFFFFFFFFF97BFFFF75
:1075E000D78FFFFFFFFFF88BFFFFF87BFFFFFFFF49
:1075F000A77BFFFFFB78EFFFFFFB787BFFFFFF9789
:107600008AFFFB98897BFFFFFFFA77777789E97C10
:10761000FFFFFFFFFBAAABFFF87DFFFFFFFFFFFFB0
:10762000FFFFD78FFFFFFFFFFFFFFFFFB79FFFFFAA
:10763000FFFFFFFFFFFF97BFFFFFFFFFFFFFFFFB06
:1076400078FFFFFFFFFFFFFFFFE87BFFFFFFFFFF6C
:10765000FFFFFE979FFFFFFFFEAFFFFEA779FFFF33
:10766000FFFFFC77777778BFFFFFFFFFFFBAAAAA7B
:10767000DFFFFFFFFFEFFFEEFFFFFFFFFFFFFFEE6C
:10768000FFFFFFFFFFFFFFFFFFFFFFEEFFEEFFFF2C
:10769000FFFFFEEFFFFFFFFFFFFFFFFFFFFFFFFF0B
:1076A000FFEEEFEEFFEEEEEFEEEEEFEEFEEFFEEFB3
:1076B000FFEEEEFFFFFFFFEEEFEEFFFFFEEFFEEF50
:1076C000FFEEFFEEFEEFFEEFEEFFFFFFFFEFEEEE51
:1076D000FFEEEEEFFEEFFFEEFFEEEEFFFEEEEEFF53
:1076E000FFFFFFEFEEEEFFEEFEEFFEEFFFEEFFEE31
:1076F000EEFFFEEFFFFFFFFFFFEFFEEEFEEEFEEF01
:10770000FEEFFFEEFFFEEEFFFEEFFFFFFFFFFFEFDE
:10771000FFEEFFEEEEEFFEEEEFEEFFFEEFFFFFEE11
:10772000EEFFFFFFFFEEEEEFFFFFFFFFFFEEEEEFDE
:10773000FFFFFFFFFFFFFFFFFFFFFFEEFFEEFFFF7B
:10774000FFFFFFEEFFEEFFFFFFFFFFFFFFFFFFFF6B
:10775000FFEEFFFEEFFFEEEEFFEEFFEEFFFFFFFF9F
:10776000FFFFFFFFFFFFFFEEFFFEEFFEEFEEFFEE7E
:10777000FEEEFFFFFFFFFFFFFFFFFFFFFFEEFFFE3D
:10778000EFFEEFFEEFEEEEEFFFFFFFFFFFFFFFFF6D
:10779000FFFFFFEEFFFEEFFEEFFEEFEEFFFFFFFF4E
:1077A000FFFFFFFFFFFFFFFFFFEEFFEEFFFEEFEE2D
:1077B000FFEEFFFFFFFFFFFFFFFFFFFFFFFFFFEEFB
:1077C000EEEFFFFFEEEEFFEEFFFFFFFFFFFFFFFF1D
:1077D000FFFFFFFFFFEEEEEFEEFFEEFFEEFFFFFF1E
:1077E000FFFFFFFFFFFFFFEEEFFFFFEEFFFFFFFFDB
:1077F000EEFFEEFFFFFFFFFFFFFFFFFFFEEEEFFFDD
:10780000FFEEFFFFEEFFEEFEEEEEFFEEEEFFEEEE22
:10781000FFFFFFFEEFFFFFEEFFFFEEFFEEFFEEFFCD
:10782000FEEFEEFFEEFFFFFFFFFEEFFFFFEEEEEFDE
:10783000EEFFEEFFEEFFFEEEEEFFEEFFFFFFFFFEC0
:10784000EFFFFFEEFFFFEEFFEEFFEEFFFEEFFFFFAD
:10785000EEFFFFFFFFFEEFFFFFEEFFFFEEFFEEFF8D
:10786000EEFFFEEFFFFFEEFFFFFFFFFEEFFFFFEE7D
:10787000FFFFEEFFEEFFEEEEFFEEEEFFEEFFFFFF8F
:10788000FFFEEFFFFFEEEEEFEEFFEEFFEEFFFFFF7E
:10789000FFFFFFFFFFFFFEEEEFFFFFEEFFFFFFFF2B
:1078A000EEFFEEFFFFFFFFFFFFFFFFFFFEEFEEFF2C
:1078B000FFEEFFFFEEFFEEFEEEEEFFEEEEFFEEEE72
:1078C000FFFFFFFFEEFFFFEEFFFFEEFFEEFFEEFF1D
:1078D000FEEFEEFFEEFFFFFFFFFFEEFFFFEEEEEF2E
:1078E000EEFFEEFFEEFFFEEEEEFFEEFFFFFFFFFE10
:1078F000EFFFFFEEFFFFEEFFEEFFEEFFFEEFFFFFFD
:10790000EEFFFFFFFFEEFFFFFFEEFFFFEEFFEEFFDC
:10791000EEFFFEEFFFFFEEFFFFFFFEEFFFFFFFEECC
:10792000FFFFEEFFEEFFEEEEFFEEEEFFEEFFFFFFDE
:10793000EEEEEEFFFFEEEEEFEEFFEEFFEEFFFFFFEF
:10794000FFFFFFFFFFFFEEEEEEFFFFEEFFFFFFFF8B
:10795000EEFFEEFFFFFFFFFFFFFFFFFFFFFFEEFF6A
:10796000FFEEFFFFEEFFEEFEEEEEFFEEEEFFEEEEC1
:10797000FFFFFFFFEEFFFFEEFFFFEEFFEEFFEEFF6C
:10798000FEEFEEFFEEFFFFFFFFEEEFFFFFEEEEEF8D
:10799000EEFFEEFFEEFFFEEEEEFFEEFFFFFFFFFF5E
:1079A000EEFFFFEEFFFFEEFFEEFFEEFFFEEFFFFF4D
:1079B000EEFFFFFFFFFFEEFFFFEEFFFFEEFFEEFF2C
:1079C000EEFFFEEFFFFFEEFFFFFFFFFFEEFFFFEE1C
:1079D000FFFFEEFFEEFFEEEEFFEEEEFFEEFFFFFF2E
:1079E000EEEEEFFFFFEEEEEFEEFFEEFFEEFFFFFF3E
:1079F000FFFFFFFFFFFFFFFEEEFFFFEEFFFFFFFFBA
:107A0000EEFFEEFFFFFFFFFFFFFFFFFFFFFEEEFFBA
:107A1000FFEEFFFFEEFFEEFEEEEEFFEEEEFFEEEE10
:107A2000FFFFFFEEEEFFFFEEFFFFEEFFEEFFEEFFCC
:107A3000FEEFEEFFEEFFFFFFFEEFEEFFFFEEEEEFDD
:107A4000EEFFEEFFEEFFFEEEEEFFEEFFFFFFFEEFBE
:107A5000EEFFFFEEFFFFEEFFEEFFEEFFFEEFFFFF9C
:107A6000EEFFFFFFEEEEEEEFFFEEFFFFEEFFEEFFAD
:107A7000EEFFFEEFFFFFEEFFFFFFFFFFEEFFFFEE6B
:107A8000FFFFEEFFEEFFEEEEFFEEEEFFEEFFFFFF7D
:107A9000FFFFEEFFFFEEEEEFEEFFEEFFEEFFFFFF6C
:107AA000FFFFFFFFFFFFFEEEEEFFFFEEFFFFFFFF1A
:107AB000EEFFEEFFFFFFFFFFFFFFFFFFFEEFFFFF09
:107AC000FFEEFFFFEEFFEEFEEEEEFFEEEEFFEEEE60
:107AD000FFFFFEEFFFFFFFEEFFFFEEFFEEFFEEFF0B
