:1000000054EF08F075EF02F004EF10F021EC08F067
:10001000FF0000F000F012000CEF10F018EF00F0FD
:10003000F26AFC6ADFEC07F0040015EC02F018EC41
:1000400005F016EC07F026EC00F0F6D7060E351892
:10005000D8B465B21200265001E01AD104010CBFD9
:100060001200AE0E3A6E400E3B6E0CEC06F0010E26
:10007000266E1A6A1B6A1A506D0FD96EDA6A000E64
:10008000DF6E1A4A1B2A1B5005E1400E1A5CD8B0DD
:100090001200F1D71200020E6D6F3A0E6E6F010E54
:1000A0006F6F706F716B200E726F736B746B685132
:1000B000546E6951556E6A51566E576A000E54243B
:1000C000756FE00E5520766FFF0E5620776FFF0E8E
:1000D0005720786F030E796FF80E7A6F7B69010EE7
:1000E0007C6F7D6B080E7E6F7F6B806B816B82698E
:1000F000A50EA66F040110BFA50C6D0E3A6E400E42
:100100003B6EDFEC05F0266A1200AF5106E17F0E70
:10011000276EF80E686F696905D0770E276E686BD9
:10012000E00E696F010E6A6FEED71B6A080E1A6E39
:100130000CD059EC08F01AC03BF01BC03CF0B2ECFC
:1001400005F015EC02F01A4A1B2A2750546E556A26
:10015000542A000E552254501A5C55501B58D3E2B5
:10016000E8D70F280AE1102808E1112806E1AFC0FE
:100170000FF0B0C010F0B1C011F00F50AF19C3E1D3
:100180001050B019C0E11150B119BDE11A6A1B6AD3
:1001900019D0B351EE081A24D96EDA6AAC0E2524B0
:1001A000E16EE26A040EE222DFCFE7FF252A0F2A82
:1001B000000E102211223A0E251802E14DEC05F036
:1001C0001A4A1B2A00017DD89EE2E3D74DEC05F0C8
:1001D000DBEC07F098D7070E6D6FAFC06EF0B0C0C4
:1001E0006FF0B1C070F0B2C071F0B3C072F0B1C0C6
:1001F000F8FFB0C0F7FFAFC0F6FF1A6A1B6A0BD05A
:1002000009000001B351AD081A24D96EDA6AF5CF9E
:10021000DFFF1A4A1B2A55D8F3E3040110BF12006E
:100220006CD7CDEC02F06FD70C0E6D6F010E6F6FB7
:10023000020E6E6F160EF66E200EF76E0900F5CFE9
:1002400070F00A00F5CF71F0060E726F200E736F1A
:10025000746B756B600E776F0D0E766F786B040E96
:10026000796F000E7A6B7B6B7C697D697E697F6933
:100270008069816982698369846B856B866B876B12
:10028000886B896B8A6B8B6BC8D706EC00F03BD709
:100290000001AE51020A01E1FED6010A01E135D7A3
:1002A000070A01E142D7010A01E15BD7030A8EE0A8
:1002B000010A91E00F0AE9E0010AB3E0050AB4E09F
:1002C00022D7B351546E556A54501A5C55501B587E
:1002D0001200898CA6D887EC07F0899CA2D887ECFD
:1002E00007F0898C3B6A0A0E3A6E87EC07F08C8225
:1002F0000F0E3B6EA00E3A6E87EC07F0FD0E29EC58
:1003000008F0120E0FEC08F0150E29EC08F01C0E88
:100310000FEC08F05B0E0FEC08F0750E29EC08F0FE
:10032000000E0FEC08F03F0E0FEC08F0AE0E29ECBB
:1003300008F0B30E29EC08F0910E0FEC08F0CA0E8D
:1003400029EC08F03F0E0FEC08F0A20E29EC08F0A3
:10035000000E0FEC08F0A10E29EC08F0000E0FECD7
:1003600008F0A00E29EC08F0140E0FEC08F0110EA6
:100370000FEC08F0B50E29EC08F0000E0FEC08F0B9
:10038000AB0E29EC08F0010E0FEC08F0B40E29ECCE
:1003900008F0A00E0FEC08F0FD0E0FEC08F0C10EF7
:1003A00029EC08F0000E39EC08F0C70E29EC08F033
:1003B0000F0E0FEC08F0B90E29EC08F0000E29EC36
:1003C00008F0B10E29EC08F0E20E0FEC08F0D10EA7
:1003D00029EC08F0A20E0FEC08F0200E0FEC08F04C
:1003E000BB0E29EC08F01F0E0FEC08F0B60E29EC3E
:1003F00008F0080E0FEC08F0BE0E29EC08F0070E0E
:100400000FEC08F0A60E29EC08F0A90E29EC08F074
:100410005C0E29EC08F0000E47EC07F0AF0E29EF58
:1004200008F03B6A030E3A6E030C47EC08F03550B7
:1004300001E1120062B4FBEC07F065B2120062B099
:10044000D3EC06F062B8AFEC07F0030E356001D0D4
:10045000030C336A62A61200645064CF52F07C0E23
:1004600052162AE164B203D01E6A040E02D0040EB2
:100470001E6E1F6E62961EC0D9FF1FC0DAFFDF30EE
:10048000E8320F0B0D0A20E12C6A23D8DECF52F0A0
:10049000DDCF53F052C0D9FF53C0DAFF2C50010F0B
:1004A0001FD817D8DE2A000EDD222C2A070E2C6456
:1004B000ECD730EC07F008D0040E641804E1629623
:1004C000F5EC06F001D06296332A030E3364C2D7EE
:1004D000030C20EE02F01E50D9261F50DA22120023
:1004E000E16EE26ADFCFE7FF120001501F0BE80662
:1004F00001E01200055001E01200060E021818E09B
:100500001ED0020E316E630E156E1F0E166E216A1E
:10051000090E0CD0020E316E390404E1A00E156EE6
:100520001F0E166E39040AE1216A1D0E206E06D0D8
:100530000450210AE6E0030AEDE0010A2E820138A8
:10054000E832030BE80614E01200020E316E370E9B
:10055000156E1ED0020E316E04C037F0020C020E72
:10056000316E360EF5D7020E316E03C036F0020C36
:100570000250010AD8B41200030AE7E0010AEFE0D2
:100580000A0AD8B41200030AE5E0010AECE01200FE
:10059000166A2E92010E206E010C426A200E436EE6
:1005A000446A186A196A42C0F6FF43C0F7FF44C0A4
:1005B000F8FF42D80800F5CFDFFF422A000E4322A1
:1005C0004422184A192A040E195CEDE30D0EE8CFF7
:1005D000B2F4600EE8CFB3F4000E3C6E080E3B6E32
:1005E000B2EC05F04268230E436E446A030E196EA6
:1005F000186844C0F8FF43C0F7FF42C0F6FF1CD89C
:10060000DF50F56E0C0018C041F03F0E411607E1B7
:1006100059EC08F0040EA66EB50E9BEC07F04206EE
:10062000000E435A445A0A001850191001E11200F2
:100630001806D8A01906DDD7AC0E1824D96E040E02
:100640001920DA6E1200315011E111EC07F00001AF
:10065000646F2F0405E1010E8DEC06F02F6A120085
:10066000000E8DEC06F0010E2F6E010C01AE1CD0B9
:10067000010E326E2050075C2150085804E207C07A
:1006800020F008C021F0C6EC03F0480E0001646FB2
:10069000010E8DEC06F0000E8DEC06F0240E040128
:1006A0000A6F040E0B6F1DD0020E326E040E000195
:1006B000646F0750081002E1480E646F2F0405E1D3
:1006C000010E8DEC06F02F6A05D0000E8DEC06F0C1
:1006D000010E2F6E07500810D8A412000401096BF8
:1006E00000D0480E086F088F480C03040BE101503E
:1006F0001F0B08E1010E316E030E021802E12E807D
:1007000001D02E900350D8A4120001501F0B020AF2
:10071000D8A4120005500F0BD8B412002ED83A6A94
:10072000040E3B6E3A26000E3B22F3503A26F4505C
:100730003B221DD83A24126EF4503B20136E030E58
:10074000021805E10FD8040EDF6E0CD81CD005AEE0
:1007500004D008D8400EDF6E400C04D8080EDF6EBF
:1007600001D811D012C0D9FF13C0DAFF1200010E58
:1007700005AE000E040DF3501200010E316E05504F
:100780000F0B080D1200000EDB8E000C080E2A6EF7
:1007900021500DE1080E205C0AE220C02AF0305002
:1007A00002E1010E03D0300402E1020E306E2AC0D5
:1007B00009F42A50205E000E215A240E126E040EF7
:1007C000136E2EA21ED00DD015C0F6FF1DD8B2ECB0
:1007D00003F00F0EF76403D00800F55001D018D8CD
:1007E0001DD82A50F1E1120015C0F6FF0DD8B2EC69
:1007F00003F00F0EF76403D00800F55001D008D8BD
:100800000DD82A50F1E1120016C0F7FFF86A120065
:10081000F6CFE1FFF7CFE2FFE7501200DF6E124A9A
:10082000132A154A162A2A06120039EC06F05C6AC9
:100830005A6A5B6A586A596A13D05A4A5B2A110E7F
:100840005A5C270E5B580CE35A6A5B6A584A592A6D
:10085000595003E1C90E585C03E3010E5C6E02D0EF
:1008600084A4EBD75C5027E0908E909069EC01F067
:100870000E0E41EC05F0486E4C0E80EC05F0130EA8
:10088000446E240E456E190E466E8F0E476E1D0E79
:10089000486E0C0E80EC05F0220E446E580E456E2C
:1008A000100E466ECF0E476E1A0E486E4C0E80EC40
:1008B00005F018EC00F000EF10F0FFD70138E83237
:1008C000030B18E01200010E316E040E356E040C9D
:1008D000010E316E390E156EC8EF02F02CD83C6E49
:1008E0003CC015F0C8EF02F026D8D96EDA6A03C012
:1008F000DFFF1200025002E1E1EF04F0010A02E121
:1009000075EF03F0020A02E175EF03F0060ADBE07F
:10091000030A02E1A0EF04F0010AD8B412000F0AA2
:10092000D7E0010A02E1B1EF06F0030AD7E0010ABD
:10093000DBE0070A1200010E316E0550380F12007D
:10094000800E011835E01200010E316ED90E156EC1
:100950001F0E166E120E0AD0035031E1010E316ED9
:10096000510E156E1F0E166E216A290E206E27D0AD
:10097000010E316E0350020D090EF324F66E140EB3
:10098000F420F76E0900F5CF15F00A00F5CF16F048
:1009900015C0F6FF16C0F7FFF86A0F0EF76403D014
:1009A0000800F55002D008EC04F0206E216A07D050
:1009B0000450010AC9E0030ACFE0010AD9E02E82FF
:1009C0001200246B256B22D0010E316E2EB02483D1
:1009D00024D0010E316E21D0BDEC03F03A6A040E32
:1009E0003B6E3A26000E3B22F3503A26F4503B224F
:1009F000B7EC03F03A24126EF4503B20136EB2ECC5
:100A000003F0DFA40AD0010E246F07D001501F0BA2
:100A1000DBE0010ADEE0030ADFE03104D8A41200C3
:100A2000240E156E040E166E2E92020E206E020C0F
:100A300000016B07D8A06C076B516C11D8A4120091
:100A40004E0E6C6F6B6B060E356007D05D505E10FE
:100A5000D8B412001FD815D810D05D505E10D8A49D
:100A600012005E6A010E5D6E0E0E446E6C0E456ED7
:100A7000100E466E6F0E476E170E486E4C0E80EFCE
:100A800005F0446E6C0E456E100E466E0F0E476EEE
:100A9000140E12005D6A5E6A0E0C246A23D0255083
:100AA0003B6E000E3BBEFF0E3C6E3D6E3B500F5C3E
:100AB0000C6E3C5010580D6E3D5011580E6E0EC00D
:100AC000F8FF0DC0F7FF0CC0F6FF11D80D00242A67
:100AD0000ED80C00242A240EA66EB50E9BEC07F04F
:100AE000FE0E25262550800A7F0FD9E21200AC0E9B
:100AF0002424D96EDA6A040EDA22DF50F56E120071
:100B0000516E47C04FF048C050F046504502F43493
:100B1000F430496EF3304B6E49C04CF044C03EF0A7
:100B200051504524496E49043F6E445046244A6E54
:100B30004A04406E515064EC06F04D6A4E6A0CD087
:100B40004FC0F6FF50C0F7FF0800F51C0FEC08F08F
:100B50004F4A502A4D4A4E2A4B504D5C4C504E58ED
:100B6000EFE312003C5006E1080E3B5C03E23C6AF6
:100B7000080E3B6EE00E3B5CFF0E3C5801E312009A
:100B80000A0E3D6E3BC03EF03CC03FF0406A3D283F
:100B900004D0D8903E363F364036E82EFAD73EC0D5
:100BA00009F03FC00AF040C00BF00BC0F8FF0AC0CC
:100BB000F7FFF66A140EA66EB50E9BEF07F0400E17
:100BC0003B6401D03B6E3D6A0DD03A503D24D96E56
:100BD000DA6A6C0E3D24E16EE26A040EE222DFCF97
:100BE000E7FF3D2A3B503D5CF0E33BC011F4400E73
:100BF0000401101710BD03D03C6A3C2A01D03C6AA6
:100C00003C3A3C463C46040110513C18BF0B3C1892
:100C1000106F1087108F1200286A0CBF12003B5013
:100C20000D5D02E20DC43BF0286A0BD02C0E282487
:100C3000D96EDA6A040EDA223A50282470EC02F0F7
:100C4000282A3B50285CF2E3400E0D6F0C170CBDB8
:100C500003D03C6A3C2A01D03C6A3C3A3C463C46C4
:100C600004010C513C18BF0B3C180C6F0C870C8F07
:100C70001200896A926AE40E8A6EE00E936EC10ECB
:100C80008B6E946E650E8C6E956EFC0E8D6E966EF0
:100C90008E6897681C0E8F6E0C0E986E370E906ED5
:100CA000300E996E110E916E9A6EC088C168F80E62
:100CB000C26E800ECB6EC098C098FCEC0FF00F0196
:100CC0005F879B8CD08E1200416E4140E8423F0B03
:100CD000426E3F40E8423F0B436EA00E29EC08F005
:100CE000060E0FEC08F0110E0FEC08F0150E29ECB3
:100CF00008F042501C0F0FEC08F043501C0F0FEC93
:100D000008F0750E29EC08F03E500FEC08F040504A
:100D10000FEC08F05C0E29EF08F03A6E080E0001A7
:100D2000656F1C0E666F040E676F3A5006E1140E75
:100D3000666F040E676F1C6A02D0040E1C6E1D6E77
:100D40000BD864C0DEFF65C0DEFF66C0DEFF67C093
:100D5000DEFF02D8DF8E12001CC0D9FF1DC0DAFFF3
:100D60001200010E316E0F0116D8296A2950380F72
:100D7000D96EDA6ADF6A292A2950F8E003C039F00F
:100D8000395019EC08F0035003E1050E356E050CDF
:100D9000060E356E060C4D6B4E6B4F6B506B516BE8
:100DA000526B536B1200030E356E0F015D6B626A5E
:100DB0007B0E5C6F5E6BCBEC06F0160E4C6F658C99
:100DC00003D0629659EC08F062B6FBD7659C659833
:100DD000040E0001646F000E8DEC06F0010E2F6E04
:100DE0002E6A396A000E19EF08F0040E351808E172
:100DF00003C05EFF0F015E51050ED8B4030E356EC1
:100E00003204D8A41200C6EC03F0020E301802E13E
:100E100008D8040C0401480E08BD080E086F088F9E
:100E20001200040E0401086F088F040CC0BC1200ED
:100E3000030ED36E65926596F26A0ED808D0C0ACE8
:100E400004D02206D8A0230601D006D804002250E0
:100E50002310F5E1FF001200040E236E226A040C39
:100E60000401086B306A00AF02D0006B2F6A04AF38
:100E700003D0046B010E2F6E326A316A206A216A38
:100E800065985EEC04F002EC00F023EF03F0446E92
:100E90003E6A3F683F0E406E000E64EC06F0456A05
:100EA000466A44500FEC08F044500FEC08F0454AF5
:100EB000462A100E465CF5E312005D505E1008E015
:100EC0004AEC05F041EC05F0486E4C0E80EC05F064
:100ED000D3CF34F00300A1B802D0D0A6FBD734C0E2
:100EE000D3FF1200286A1E0E0F014D6F400E040141
:100EF0000D6F2C0E0E6F040E0F6F080E0C6F0C8F03
:100F00006C0E126F040E136F400E106F400C3C6A93
:100F10003D6A0BD03E6A3F6A3E4A3F2A3F5003E19A
:100F2000460E3E5CF9E33C4A3D2A3A503C5C3B505D
:100F30003D58F0E312003A6EF29E16EC07F0B50E43
:100F40003A1804E0030ED36E0300FED7550EA76EC9
:100F5000AA0EA76EA682A6B2FED7A69412005CCFF8
:100F60002BF0040E0F015C6F62986582A198A08837
:100F70005DEC07F0A0982B500F015C1312002D04BC
:100F800002E121EC08F0656A150E0F015F6F5C6BE2
:100F90006586D3EC06F0010E356E2D6A1200770ED1
:100FA000276E0001686BE00E696F010E6A6F266A9A
:100FB00002D8256A12000F6810681168FF0C600ED5
:100FC000D36E9B8C43EC08F005EC08F0C16AC26A52
:100FD000CFEC07F0908499944EEF08F008D03A06D1
:100FE000D8A03B069EA603D03A6A3B6A9E963A502A
:100FF0003B10F5E1120040EC08F065920F015C95A2
:1010000001D0629462A41200FCD705D059EC08F01C
:101010003A06D8A03B063A503B10F8E112003D6E6C
:101020008B94898E3D5031EC08F000D0898E8B84F2
:1010300012003A6E3A04D8A4120072EC07F0CFEF17
:1010400007F06592656A3B683A6805EC08F0356A16
:1010500012003D6E8B94899E3D5031EC08F016EFE6
:1010600008F03C6E3CC0C9FF3B6A640E3A6EEEEF7E
:1010700007F03E6EC10E29EC08F03E500FEF08F06D
:1010800002D805EF08F0030E3B6E3A6A030C2D04FC
:1010900001E1120065A6BFEC07F0120065B621EC75
:1010A00008F02D6A47EF08F0000EF86E000115EF0A
:0A10B00004F0040012001200120008
:1014080000EB1FBD1F7A1FD7CFFFFC7DFFFFFFFF3B
:10141800FFFFFFFFFFFFFFFFFFFFFFFFFFFFFFFFD4
:1014280099FFFFFFFFFFFFFFFFFFFFFFFFFFFFFF2A
:10143800FFFFFFFFFFFFF99FFFFFFFFFFFD7CFFF72
:10144800FC7DFFFFFFFFFFFFFFFFFFFFFFFFFFFF29
:10145800FFFFFFFFFFFF99FFFFFFFFFFFFFFFFFFFA
:10146800FFFFFFFFFFFFFFFFFFFFFFFFF99FFFFFEA
:10147800FFFFFFD7CFFFFC7DFFFFFFFFFFFFFFFF51
:10148800FFFFFFFFFFFFFFFFFFFFFFFF99FFFFFFCA
:10149800FFFFFFFFFFFFFFFFFFFFFFFFFFFFFFFF54
:1014A800FFFFF99FFFFFFFFFFFD7CFFFFC8DFC8CED
:1014B800978BFFFF977AB9FF9BB88FEA777AFFFF80
:1014C800977A99FFFB878CFFFFFFC8C978BD977B88
:1014D800FFFE9779DFFFF977A99FFFB878CFFFD78D
:1014E800CFFFFC7DFC78BF97BFF98BD989FF989B0C
:1014F800CFF9AF97BFF98BD989FFB7AE98EFFFFF48
:10150800C78BE988BF97DFF89CD98FFF98BD989F54
:10151800FB7AE98EFFD7CFFFFC7DFC8BFFF89FC7D6
:10152800BFFF89FF98EFFFFFFFF8AFC7BFFF89FF35
:1015380089FFF8AFFFFFC7BFFC7AFFE7BFB7DFFF40
:101548008AFC7BFFF89FF89FFF8AFFD7CFFFFC7DBF
:10155800FC7CFFFA8FB7EFFF99FF99FFFFFFFFF8B9
:10156800AFB7EFFF99FD7BFFF99FFFFFC7CFFD7B6B
:10157800FFF7BF98FFFF99FB7EFFF99FD8BFFF9940
:10158800FFD7CFFFFC7DFC7DFFFA7FB7FFFF99FFF8
:1015980099FFFFE97777AFB8FFFF99FC7777789FD6
:1015A800FFFFC7DFFD7CFFF8BF99FFFF98FB7FFFB8
:1015B800F99FC7877779FFE7BFFFFB8EFC7CFFFAAF
:1015C8008FB7EFFF99FF99FFFF88BFF8AFB7EFFF1D
:1015D80099FD7CFFFFFFFFFFC7DFFD7CFFF7BF988A
:1015E800FFFF99FB7EFFF99FD8CFFFFFFFF89FFF12
:1015F800F98FFC7BFFF89FC7BFFF89FF99FFFE7B30
:10160800FFF8AFC7BFFF89FF8AFFFFFFFFFFC7DFF4
:10161800FD7CFFF7BFB7DFFF8AFC7BFFF89FF8AFC1
:10162800FFFFFFFB79DD97BFFC88BF97CFF98BE9F8
:1016380089FF99FFFF89DB98AFF98BE989FFB7AE7E
:10164800DADFFFFFC7DFFD7CFFF7BFF89CD98EFF0D
:1016580098BE989FFB7AEDADFFFFB9779BFFFC7BA7
:10166800978BFFFF978A99FF99FFFFC888BAAFFF4A
:10167800977AB9FFFB8779DFFFFFC7DFFD7CFFF7AC
:10168800BFFE9779DFFFF987AB9FFFB8779DFFFF14
:10169800FFFFFFFFFC7DFFFFFFFFFFFF99FFFFFF3D
:1016A800FFFFFFFFFFFFFFFFFFFFFFFFFFFFFFFF42
:1016B800FFFFFFFFFFFFFFFFFFFFFFFFFFFFFFFF32
:1016C800FFFFFFFFFFFFFFFFFFFFFC7DFFFFFFFFA7
:1016D800FFFF8AFFFFFFFFFFFFFFFFFFFFFFFFFF87
:1016E800FFFFFFFFFFFFFFFFFFFFFFFFFFFFFFFF02
:1016F800FFFFFFFFFFFFFFFFFFFFFFFFFFFFFFFFF2
:10170800FC7DFFFFFFF9ADD97CFFFFFFFFFFFFFF67
:10171800FFFFFFFFFFFFFFFFFFFFFFFFFFFFFFFFD1
:10172800FFFFFFFFFFFFFFFFFFFFFFFFFFFFFFFFC1
:10173800FFFFFFFFFFFFFC7DFFFFFFFB7778BFFF89
:10174800FFFFFFFFFFFFFFFFFFFFFFFFFFFFFFFFA1
:10175800FFFFFFFFFFFFFFFFFFFFFFFFFFFFFFFF91
:10176800FFFFFFFFFFFFFFD7CFFFFC7DFFB9778BA0
:10177800FF977779CFFFFFFFFFFFFFFFFFFFFFFF17
:10178800FFFFF8BFFFFFFFFFFFFFFFFFFFFFFFFFA8
:10179800FFFFFFFFFFFFB7FFFFFFFFFFFFD7CFFFF1
:1017A800FC7DFC79ECAAFF99FFB97DFFFFFFFFFFE5
:1017B800FFFFFFFFFFFF8FFFF9BFFFFFFFFFFFFFE7
:1017C800FFFFFC9FFFFFFFFFFFFFFFFFB7FFFFFFCC
:1017D800FFFFFFD7CFFFFC7DFA8FFFFFFF99FFFCCC
:1017E8007BFFFFFFFFFFFFFFFFFFFFFC7FFFFFFF08
:1017F800FFFFFFFFFFFFFFFFFB9FFFFFFFFFFFFF55
:10180800FFFFB7FFFFFFFFFFFFD7CFFFFC7DFA8F7A
:10181800FFFFFF99FFFD8BFFFFFFA8779FFFFB8767
:101828007AC7777BF7BD8BFFFC7BFA8779FFA878AF
:101838007DFE9779FFFFA779B8FFFFFFFFFFFFD76E
:10184800CFFFFC7DFB79FFFFFF99FFF98FFFFFFFBB
:101858009AEB7AFFB7AFACFB8FFFF7BF89FFFA8F20
:10186800F9AEB8AFF99FFFF89CB8AFFA8BFA87FFCB
:10187800FFFFFFFFFFD7CFFFFC7DFFA77AFFFF9891
:101888007777EFFFFFFFFFFF99FF89FFFFFB8FFFD0
:10189800F7BFB7EFF89FFFFFF99FF99FFFB7DFFB8F
:1018A8007EF89FFF97FFFFFFFFFFFFD7CFFFFC7D6D
:1018B800FFFD978CFF99FFC98EFFFFFFFFFF99FD82
:1018C8007BFFFFFB7FFFF8BFE7BFC7CFFFFFF99F95
:1018D800F99FFF98FFFC8CD7BFFFB7FFFFFFFFFF03
:1018E800FFD7CFFFFC7DFFFFFE88FF99FFFF8AFF30
:1018F800FFFFA77779FC8CFFFFFB7FFFF7BFF99FFE
:10190800B8FFFA77779FF99FFF9777777CC8CFFF63
:10191800B7FFFFFFFFFFFFE7BFFFFB7EFFFFFFB73C
:10192800EF99FFFF99FFFFF97AFF99FD7BFFFFFB16
:101938008FFFF7BFFB8F8AFF97AFF99FF99FFF993A
:10194800FFFFFFD7BFFFB7FFFFFFFFFFFFF89FFFB6
:10195800F98FFFFFFFB8FF99FFFF89FFFFF89FFF8F
:1019680099FF89FFFFFB7EFFF7BFFE7B7CFF89FFA6
:10197800F99FF98FFFB8FFFFFFF8AFFF97FFFFFF51
:10198800FFFFFFFB79DD97BFFAACFA8AFF99FFB931
:101998008CFFFFF98BDA89FFB7AFBBFC8AFCF7BF76
:1019A800FF988FFF98BDA89FFB7BDEF89BFBBFFAD3
:1019B8007BFA87FFFFFFFFFFFFFFB9779BFFFB77EE
:1019C80088BFFF977779CFFFFFFE977AB9FFFB872C
:1019D8007BFFA87AF7BFFFB7AFFFE978AB9FFF9708
:1019E8007CFE9777AFFFA779C7FFFFFFFFFFFFFFD9
:1019F800FFFFFFFFFFFFFFFFFFFFFFFFFFFFFFFFEF
:101A0800FFFFFFFFFFFFFFFFFFFFFFFFFFFFFFFFDE
:101A1800FFFFFFFFFFFFFFFFFFFFFFFFFFFFFFFFCE
:101A2800FFFFFFFFFFFFFFFFFFFFFFFFFFFFFFFFBE
:101A3800FFFFFFFFFFFFFFFFFFFFFFFFFFFFFFFFAE
:101A4800FFFFFFFFFFFFFFFFFFFFFFFFFFFFFFFF9E
:101A5800FFFFFFFFFFFFFFFFFFFFFFFFFFFFFFFF8E
:101A6800FFFFFFFFFFFFFFFFFFFFFFFFFFFFFFFF7E
:101A7800FFFFFFFFFFFFFFFFFFFFFFFFFFFFFFFF6E
:101A8800FFFFFFFFFFFFFFFFFFFFFFFFFFFFFFFF5E
:101A9800FFFFFFFFFFFFFFFFFFFFFFFFFFFFFFFF4E
:101AA800FFFFFFFFFFFFFFFFFFFFFFFFFFFFFFFF3E
:101AB800FFFFFFFFFFFFFFFFFFFFFFFFFFFFFFFF2E
:101AC800FFFFFFFFFFFFFFA9FFFFFC7EFFFFFFFFF8
:101AD800FFFFFFFFFFFFFC7CFFFFFFFFFFFFFFFF94
:101AE800FFFFFFFFFD8AFFFFFFFFFFFFFC9DFFFFDA
:101AF800FFFFFFC7FFFFFA9FFFFFFFFFFFFFFFFF8B
:101B0800FFFFFEAFFFFFFFFFFFFFFFFFFFFFFFFF2E
:101B1800B78AFFFFFFFFFFFFF87CFFFFFFFFFFF81B
:101B2800BFFFF8BFFFFFFFFFFFFFFFFFFFFFFFFF44
:101B3800FFFFFFFFFFFFFFFFFFFFFFFC7BBAFFFF79
:101B4800FFFFFFFFAA7CFFFFFFFFFFFA9FFFC7FF12
:101B5800FA777BFFB8877CD8877BFE8FFFB8779DA5
:101B6800FFA98779FFFFFFFFFFBAFFFFFFFFFFFC19
:101B78007E7CFFFFFFFFFFFC8EFFA9FFB8BFB7CF3A
:101B8800B7AFFF99FFBBFE7FFD8AFF98FFA7AFE8BD
:101B9800AFFFFFFFFFBAFFFFFFFFFFF8BF7CFFFFAC
:101BA800FFFFFFFF8BFF8BFF9BFFF9AFB8FFFF8B9A
:101BB800FFFFFE8FFA9FFFE7DFA9FFFB9FFFFFFFF5
:101BC800FFBAFFFFFFFFFFB8FF7CFFFFFFFFFFFF2C
:101BD800A9FC7FFF777777AFB8FFFFB79BFFFE7F42
:101BE800F9BFFFF9BFAAFFFB9FFFFFFFFFBAFFFF87
:101BF800FFFFFD7CFF8CFFFFFFFFFFFFD7E99FFF83
:101C08007DFFFFFFB8FFFFFCA78CFE7FF9BFFFF940
:101C1800BFABFFFB9FFFFFFFFFBAFFFFFFFFF99C72
:101C2800CC7BDFFFFFFFFFFFF8B8CFFF8CFFFFFF84
:101C3800B8FFFFFFFFA8FE7FF9AFFFF8CFABFFFBB0
:101C48009FFFFFFFFFBAFFFFFFFFF9999979AFFFE9
:101C5800FFFFFFFFFA78FFFF99FFFFFFB8FFFFFFC5
:101C6800FFC8FE7FFB8FFFB7FFABFFFB9FFFFFFFA8
:101C7800FFBAFFFFFFFFFFFFFF7CFFFFFFFFFFFF34
:101C8800FD89FFFFD89AA8BFB8FFFE7AAA7AFE7F1F
:101C9800FF98AA7BFFABFFFB9FFFFFFFFFBAFFFF89
:101CA80099FFFFFFFF8CFFFFFFFFFFFFFFBDFFFF57
:101CB800FEAAABFFDBFFFFBAAABFFFAFFFFAAABFBE
:101CC800FFBCFFFDBFFFFFFFFFCBFFFFBBFFFFFF19
:101CD800FF7CFFFFFFFFFFFFFFFFFFFFFFFFFFFF8F
:101CE800FFFFFFFFFFFFFFFFFFFFFFFFFFFFFFFFFC
:101CF800FFFFFFFFFFFFFFFFFFFFFFFFFFFFFFFFEC
:101D0800FFFFFFFFFFFFFFFFFFFFFFFFFFFFFFFFDB
:101D1800FFFFFFFFFFFFFFFFFFFFFFFFFFFFFFFFCB
:101D2800FFFFFFFFFFFFFFFFFFFFFFFFFFFFFFFFBB
:101D3800FFFFFFFFFFFFFFFFFFFFFFFFFFFFFFFFAB
:101D4800FFFFFFFFFFFFFFFFFFFFFFFFFFFFFFFF9B
:101D5800FFFFFFFFFFFFFFFFFFFFFFFFFFFFFFFF8B
:101D6800FFFFFFFFFFFFFFFFFFFFFFFFFFFFFFFF7B
:101D7800FFFFFFFFFFFFFFFFFFFFFFFFFFFFFFFF6B
:101D8800FFFFFFFFFFFFFFFFFFFFFFFFFFFFFFFF5B
:101D9800FFFFFFFFFFFFFFFFFFFFFFFFFFFFFFFD4D
:101DA800A88889BDFFFFFFFFFFFFFFFFFFFFFFFFC1
:101DB800FC88777877789DFFFFFFFFFFFFFFFFFF25
:101DC800FFFFA7878ABBBA8777BFFFFFFFFFFFFF29
:101DD800FFFFFFF9778CFFFFFFFC887AFFFFFFFF0B
:101DE800FFFFFFFFFFA779FFFFFFFFFFF977BFFFA7
:101DF800FFFFFFFFFFFFFFA89FFFFFFFFFFFFF9809
:101E08007DFFFFFFFFFFFFFFFFFEFFFFFFFFFFFF5D
:101E1800FFE879FFFFFFFFFFFFFFFEFFFFFFFFFF68
:101E2800FFFFFFFB77DFFFFFFFFFFFFFC8FFFFFF9D
:101E3800FFFFFFFFFFFF77BFFFFFFFFFFFFE88BF2A
:101E4800FFFFFFFFFFFFFFFF97AFFFFFFFFFFFF958
:101E5800777DFFFFFFFFFFFFFFDA888AAFFFFFFFF5
:101E6800FFC78778FFFFFFFFFFFFFFF88787CFFFD8
:101E7800FFFFFFAA778ADFFFFFFFFFFFFFFD7879EB
:101E8800FFFFFFFFFFFF879FFFFFFFFFFFFFFFFF32
:101E9800A78EFFFFFFFFFFFF978FFFFFFFFFFFFFEB
:101EA800FFFFF8CFFFFFFFFFFFFFC77BFFFFFFFF2D
:101EB800FFFFFFFFFEFFFFFFFFFFFFFFF878EFFFC9
:101EC800FFFFFFFFFFDDFFFFFFFFFFFFFFFFFC78C6
:101ED8008FFFFFFFFFFFFD88AFFFFFFFFFFFFFFF43
:101EE800FF9778EFFFFFFFFFC877DFFFFFFFFFFFD8
:101EF800FFFFFFF9778AEFFFFFD9878CFFFFFFFF0E
:101F0800FFFFFFFFFFFFA787789A988778CFFFFF2B
:101F1800FFFFFFFFFFFFFFFFFC8777778777AEFFA5
:101F2800FFFFFFFFFFFFFFFFFFFFFFFDA98889BE3F
:101F3800FFFFFFFFFFFFFFFFFFFFFFFFFFFFFFFFA9
:101F4800FFFFFFFFFFFFFFFFFF090229000101005C
:101F58008032090400000203000000092111010079
:101F680001221D0007058103400001070501034008
:101F78000001260348004900440020005500530092
:101F88004200200042006F006F0074006C006F0078
:101F980061006400650072000600FF0901A10119D3
:101FA800012940150026FF00750895408100190198
:101FB80029409100C01C034D0041005400520049C3
:101FC800005800200041005500440049004F002EF1
:101FD800001201000200000008D8043C00010101C1
:101FE8000200010403090400312E3400000000003F
:081FF800300EC66E300C010032
:020000040001F9
:06FFF800ACF7C2F9F0FDB8
:00000001FF
